{
  "_format": "hh-sol-artifact-1",
  "contractName": "WordFactory",
  "sourceName": "contracts/WordFactory.sol",
  "abi": [
    {
      "inputs": [],
      "stateMutability": "payable",
      "type": "constructor"
    },
    {
      "anonymous": false,
      "inputs": [
        {
          "indexed": false,
          "internalType": "address",
          "name": "providerAddress",
          "type": "address"
        }
      ],
      "name": "ProviderAdded",
      "type": "event"
    },
    {
      "anonymous": false,
      "inputs": [
        {
          "indexed": false,
          "internalType": "address",
          "name": "providerAddress",
          "type": "address"
        }
      ],
      "name": "ProviderRemoved",
      "type": "event"
    },
    {
      "anonymous": false,
      "inputs": [
        {
          "indexed": false,
          "internalType": "uint256",
          "name": "threshold",
          "type": "uint256"
        }
      ],
      "name": "ProvidersThresholdChanged",
      "type": "event"
    },
    {
      "anonymous": false,
      "inputs": [
        {
          "indexed": true,
          "internalType": "bytes32",
          "name": "role",
          "type": "bytes32"
        },
        {
          "indexed": true,
          "internalType": "bytes32",
          "name": "previousAdminRole",
          "type": "bytes32"
        },
        {
          "indexed": true,
          "internalType": "bytes32",
          "name": "newAdminRole",
          "type": "bytes32"
        }
      ],
      "name": "RoleAdminChanged",
      "type": "event"
    },
    {
      "anonymous": false,
      "inputs": [
        {
          "indexed": true,
          "internalType": "bytes32",
          "name": "role",
          "type": "bytes32"
        },
        {
          "indexed": true,
          "internalType": "address",
          "name": "account",
          "type": "address"
        },
        {
          "indexed": true,
          "internalType": "address",
          "name": "sender",
          "type": "address"
        }
      ],
      "name": "RoleGranted",
      "type": "event"
    },
    {
      "anonymous": false,
      "inputs": [
        {
          "indexed": true,
          "internalType": "bytes32",
          "name": "role",
          "type": "bytes32"
        },
        {
          "indexed": true,
          "internalType": "address",
          "name": "account",
          "type": "address"
        },
        {
          "indexed": true,
          "internalType": "address",
          "name": "sender",
          "type": "address"
        }
      ],
      "name": "RoleRevoked",
      "type": "event"
    },
    {
      "anonymous": false,
      "inputs": [
        {
          "indexed": true,
          "internalType": "address",
          "name": "from",
          "type": "address"
        },
        {
          "indexed": true,
          "internalType": "address",
          "name": "to",
          "type": "address"
        },
        {
          "indexed": false,
          "internalType": "uint256",
          "name": "value",
          "type": "uint256"
        }
      ],
      "name": "Transfer",
      "type": "event"
    },
    {
      "anonymous": false,
      "inputs": [
        {
          "indexed": false,
          "internalType": "address",
          "name": "callerAddress",
          "type": "address"
        },
        {
          "indexed": false,
          "internalType": "uint256",
          "name": "id",
          "type": "uint256"
        }
      ],
      "name": "ValidationRequested",
      "type": "event"
    },
    {
      "anonymous": false,
      "inputs": [
        {
          "indexed": false,
          "internalType": "bool",
          "name": "isChallengeValid",
          "type": "bool"
        },
        {
          "indexed": false,
          "internalType": "address",
          "name": "returnerAddress",
          "type": "address"
        },
        {
          "indexed": false,
          "internalType": "uint256",
          "name": "id",
          "type": "uint256"
        }
      ],
      "name": "ValidationReturned",
      "type": "event"
    },
    {
      "stateMutability": "payable",
      "type": "fallback"
    },
    {
      "inputs": [],
      "name": "DEFAULT_ADMIN_ROLE",
      "outputs": [
        {
          "internalType": "bytes32",
          "name": "",
          "type": "bytes32"
        }
      ],
      "stateMutability": "view",
      "type": "function"
    },
    {
      "inputs": [],
      "name": "GAME_OWNER_ROLE",
      "outputs": [
        {
          "internalType": "bytes32",
          "name": "",
          "type": "bytes32"
        }
      ],
      "stateMutability": "view",
      "type": "function"
    },
    {
      "inputs": [],
      "name": "LOCAL_GAMES_ROLE",
      "outputs": [
        {
          "internalType": "bytes32",
          "name": "",
          "type": "bytes32"
        }
      ],
      "stateMutability": "view",
      "type": "function"
    },
    {
      "inputs": [],
      "name": "PROVIDER_ROLE",
      "outputs": [
        {
          "internalType": "bytes32",
          "name": "",
          "type": "bytes32"
        }
      ],
      "stateMutability": "view",
      "type": "function"
    },
    {
      "inputs": [
        {
          "internalType": "address",
          "name": "provider",
          "type": "address"
        }
      ],
      "name": "addProvider",
      "outputs": [],
      "stateMutability": "nonpayable",
      "type": "function"
    },
    {
      "inputs": [
        {
          "internalType": "address",
          "name": "account",
          "type": "address"
        }
      ],
      "name": "balanceOf",
      "outputs": [
        {
          "internalType": "uint256",
          "name": "",
          "type": "uint256"
        }
      ],
      "stateMutability": "view",
      "type": "function"
    },
    {
      "inputs": [
        {
          "internalType": "address",
          "name": "user",
          "type": "address"
        }
      ],
      "name": "chargeGuess",
      "outputs": [
        {
          "internalType": "bool",
          "name": "",
          "type": "bool"
        }
      ],
      "stateMutability": "nonpayable",
      "type": "function"
    },
    {
      "inputs": [],
      "name": "decimals",
      "outputs": [
        {
          "internalType": "uint8",
          "name": "",
          "type": "uint8"
        }
      ],
      "stateMutability": "view",
      "type": "function"
    },
    {
      "inputs": [],
      "name": "gamesCounter",
      "outputs": [
        {
          "internalType": "uint256",
          "name": "",
          "type": "uint256"
        }
      ],
      "stateMutability": "view",
      "type": "function"
    },
    {
      "inputs": [
        {
          "internalType": "bytes32",
          "name": "role",
          "type": "bytes32"
        }
      ],
      "name": "getRoleAdmin",
      "outputs": [
        {
          "internalType": "bytes32",
          "name": "",
          "type": "bytes32"
        }
      ],
      "stateMutability": "view",
      "type": "function"
    },
    {
      "inputs": [
        {
          "internalType": "uint256",
          "name": "amount",
          "type": "uint256"
        }
      ],
      "name": "getTokens",
      "outputs": [
        {
          "internalType": "bool",
          "name": "",
          "type": "bool"
        }
      ],
      "stateMutability": "payable",
      "type": "function"
    },
    {
      "inputs": [
        {
          "internalType": "bytes32",
          "name": "role",
          "type": "bytes32"
        },
        {
          "internalType": "address",
          "name": "account",
          "type": "address"
        }
      ],
      "name": "grantRole",
      "outputs": [],
      "stateMutability": "nonpayable",
      "type": "function"
    },
    {
      "inputs": [
        {
          "internalType": "bytes32",
          "name": "role",
          "type": "bytes32"
        },
        {
          "internalType": "address",
          "name": "account",
          "type": "address"
        }
      ],
      "name": "hasRole",
      "outputs": [
        {
          "internalType": "bool",
          "name": "",
          "type": "bool"
        }
      ],
      "stateMutability": "view",
      "type": "function"
    },
    {
      "inputs": [
        {
          "internalType": "address",
          "name": "game",
          "type": "address"
        }
      ],
      "name": "isChildGame",
      "outputs": [
        {
          "internalType": "bool",
          "name": "",
          "type": "bool"
        }
      ],
      "stateMutability": "view",
      "type": "function"
    },
    {
      "inputs": [
        {
          "internalType": "uint8[64]",
          "name": "secret",
          "type": "uint8[64]"
        }
      ],
      "name": "newGame",
      "outputs": [
        {
          "internalType": "address",
          "name": "",
          "type": "address"
        }
      ],
      "stateMutability": "payable",
      "type": "function"
    },
    {
      "inputs": [],
      "name": "owner",
      "outputs": [
        {
          "internalType": "address payable",
          "name": "",
          "type": "address"
        }
      ],
      "stateMutability": "view",
      "type": "function"
    },
    {
      "inputs": [],
      "name": "ownerPremium",
      "outputs": [
        {
          "internalType": "uint256",
          "name": "",
          "type": "uint256"
        }
      ],
      "stateMutability": "view",
      "type": "function"
    },
    {
      "inputs": [
        {
          "internalType": "address",
          "name": "provider",
          "type": "address"
        }
      ],
      "name": "removeProvider",
      "outputs": [],
      "stateMutability": "nonpayable",
      "type": "function"
    },
    {
      "inputs": [
        {
          "internalType": "bytes32",
          "name": "role",
          "type": "bytes32"
        },
        {
          "internalType": "address",
          "name": "account",
          "type": "address"
        }
      ],
      "name": "renounceRole",
      "outputs": [],
      "stateMutability": "nonpayable",
      "type": "function"
    },
    {
      "inputs": [],
      "name": "requestValidateChallenge",
      "outputs": [
        {
          "internalType": "uint256",
          "name": "",
          "type": "uint256"
        }
      ],
      "stateMutability": "nonpayable",
      "type": "function"
    },
    {
      "inputs": [
        {
          "internalType": "bool",
          "name": "validationResult",
          "type": "bool"
        },
        {
          "internalType": "uint256",
          "name": "id",
          "type": "uint256"
        }
      ],
      "name": "returnValidateChallenge",
      "outputs": [],
      "stateMutability": "nonpayable",
      "type": "function"
    },
    {
      "inputs": [
        {
          "internalType": "bytes32",
          "name": "role",
          "type": "bytes32"
        },
        {
          "internalType": "address",
          "name": "account",
          "type": "address"
        }
      ],
      "name": "revokeRole",
      "outputs": [],
      "stateMutability": "nonpayable",
      "type": "function"
    },
    {
      "inputs": [
        {
          "internalType": "uint256",
          "name": "threshold",
          "type": "uint256"
        }
      ],
      "name": "setProvidersThreshold",
      "outputs": [],
      "stateMutability": "nonpayable",
      "type": "function"
    },
    {
      "inputs": [
        {
          "internalType": "bytes4",
          "name": "interfaceId",
          "type": "bytes4"
        }
      ],
      "name": "supportsInterface",
      "outputs": [
        {
          "internalType": "bool",
          "name": "",
          "type": "bool"
        }
      ],
      "stateMutability": "view",
      "type": "function"
    },
    {
      "inputs": [],
      "name": "totalSupply",
      "outputs": [
        {
          "internalType": "uint256",
          "name": "",
          "type": "uint256"
        }
      ],
      "stateMutability": "view",
      "type": "function"
    },
    {
      "inputs": [
        {
          "internalType": "address",
          "name": "to",
          "type": "address"
        },
        {
          "internalType": "uint256",
          "name": "amount",
          "type": "uint256"
        }
      ],
      "name": "transfer",
      "outputs": [
        {
          "internalType": "bool",
          "name": "",
          "type": "bool"
        }
      ],
      "stateMutability": "nonpayable",
      "type": "function"
    },
    {
      "inputs": [],
      "name": "userGuessCost",
      "outputs": [
        {
          "internalType": "uint256",
          "name": "",
          "type": "uint256"
        }
      ],
      "stateMutability": "view",
      "type": "function"
    },
    {
      "inputs": [],
      "name": "userNewGameCost",
      "outputs": [
        {
          "internalType": "uint256",
          "name": "",
          "type": "uint256"
        }
      ],
      "stateMutability": "view",
      "type": "function"
    },
    {
      "inputs": [],
      "name": "userPremium",
      "outputs": [
        {
          "internalType": "uint256",
          "name": "",
          "type": "uint256"
        }
      ],
      "stateMutability": "view",
      "type": "function"
    },
    {
      "stateMutability": "payable",
      "type": "receive"
    }
  ],
  "bytecode": "0x6080604052600060075560016008556000600955620000286000801b33620000d160201b60201c565b60326003819055506032600581905550603260068190555060646006819055506200007a7f18d9ff454de989bd126b06bd404b47ede75f9e65543e94e8d212f89d7dcbb87c33620000e760201b60201c565b600160078190555033600d60006101000a81548173ffffffffffffffffffffffffffffffffffffffff021916908373ffffffffffffffffffffffffffffffffffffffff1602179055506000600e819055506200024a565b620000e38282620000e760201b60201c565b5050565b620000f98282620001d860201b60201c565b620001d457600160008084815260200190815260200160002060000160008373ffffffffffffffffffffffffffffffffffffffff1673ffffffffffffffffffffffffffffffffffffffff16815260200190815260200160002060006101000a81548160ff021916908315150217905550620001796200024260201b60201c565b73ffffffffffffffffffffffffffffffffffffffff168173ffffffffffffffffffffffffffffffffffffffff16837f2f8788117e7eff1d82e926ec794901d17c78024a50270940304540a733656f0d60405160405180910390a45b5050565b600080600084815260200190815260200160002060000160008373ffffffffffffffffffffffffffffffffffffffff1673ffffffffffffffffffffffffffffffffffffffff16815260200190815260200160002060009054906101000a900460ff16905092915050565b600033905090565b615089806200025a6000396000f3fe608060405260043610620001f35760003560e01c806391d14854116200010f578063c65ae7f011620000a3578063e00e0219116200006d578063e00e021914620007e1578063eb9b8d5f1462000811578063ee8564711462000855578063fc39599c14620008855762000264565b8063c65ae7f01462000717578063d3c9cc261462000747578063d547741f146200077d578063d78f4b8914620007ab5762000264565b8063af55036a11620000e5578063af55036a146200065b578063b77c1c6d1462000689578063b9d5fcdc14620006b7578063be32d1fa14620006e75762000264565b806391d1485414620005a3578063a217fddf14620005e7578063a9059cbb14620006175762000264565b806336568abe116200018757806370a08231116200015d57806370a0823114620004d15780638a355a5714620005155780638da5cb5b14620005435780638eaf68bd14620005735762000264565b806336568abe146200044557806346e2577a14620004735780635eb6a78f14620004a15762000264565b8063248a9ca311620001c9578063248a9ca3146200037357806324c20a3414620003b75780632f2ff15d14620003e7578063313ce56714620004155762000264565b806301ffc9a714620002cf5780630ceb715e146200031357806318160ddd14620003435762000264565b366200026457600d60009054906101000a900473ffffffffffffffffffffffffffffffffffffffff1673ffffffffffffffffffffffffffffffffffffffff166108fc349081150290604051600060405180830381858888f1935050505015801562000262573d6000803e3d6000fd5b005b600d60009054906101000a900473ffffffffffffffffffffffffffffffffffffffff1673ffffffffffffffffffffffffffffffffffffffff166108fc349081150290604051600060405180830381858888f19350505050158015620002cd573d6000803e3d6000fd5b005b348015620002dc57600080fd5b50620002fb6004803603810190620002f591906200253a565b620008c9565b6040516200030a919062002589565b60405180910390f35b3480156200032057600080fd5b506200032b62000946565b6040516200033a9190620025c1565b60405180910390f35b3480156200035057600080fd5b506200035b6200096a565b6040516200036a9190620025f9565b60405180910390f35b3480156200038057600080fd5b506200039f600480360381019062000399919062002647565b62000974565b604051620003ae9190620025c1565b60405180910390f35b348015620003c457600080fd5b50620003cf62000993565b604051620003de9190620025c1565b60405180910390f35b348015620003f457600080fd5b506200041360048036038101906200040d9190620026de565b620009b7565b005b3480156200042257600080fd5b506200042d620009de565b6040516200043c919062002743565b60405180910390f35b3480156200045257600080fd5b506200047160048036038101906200046b9190620026de565b620009e3565b005b3480156200048057600080fd5b506200049f600480360381019062000499919062002760565b62000a6d565b005b348015620004ae57600080fd5b50620004b962000bac565b604051620004c89190620025f9565b60405180910390f35b348015620004de57600080fd5b50620004fd6004803603810190620004f7919062002760565b62000bb2565b6040516200050c9190620025f9565b60405180910390f35b3480156200052257600080fd5b506200054160048036038101906200053b919062002760565b62000bfb565b005b3480156200055057600080fd5b506200055b62000d82565b6040516200056a9190620027b7565b60405180910390f35b3480156200058057600080fd5b506200058b62000da8565b6040516200059a9190620025f9565b60405180910390f35b348015620005b057600080fd5b50620005cf6004803603810190620005c99190620026de565b62000dae565b604051620005de919062002589565b60405180910390f35b348015620005f457600080fd5b50620005ff62000e18565b6040516200060e9190620025c1565b60405180910390f35b3480156200062457600080fd5b506200064360048036038101906200063d919062002805565b62000e1f565b60405162000652919062002589565b60405180910390f35b3480156200066857600080fd5b506200068760048036038101906200068191906200287d565b62000fb1565b005b3480156200069657600080fd5b50620006b56004803603810190620006af9190620028c4565b6200138c565b005b348015620006c457600080fd5b50620006cf62001465565b604051620006de9190620025f9565b60405180910390f35b348015620006f457600080fd5b50620006ff6200146b565b6040516200070e9190620025f9565b60405180910390f35b3480156200072457600080fd5b506200072f62001677565b6040516200073e9190620025f9565b60405180910390f35b6200076560048036038101906200075f9190620028c4565b6200167d565b60405162000774919062002589565b60405180910390f35b3480156200078a57600080fd5b50620007a96004803603810190620007a39190620026de565b620016fb565b005b620007c96004803603810190620007c3919062002920565b62001722565b604051620007d8919062002964565b60405180910390f35b348015620007ee57600080fd5b50620007f9620017a7565b604051620008089190620025f9565b60405180910390f35b3480156200081e57600080fd5b506200083d600480360381019062000837919062002760565b620017ad565b6040516200084c919062002589565b60405180910390f35b3480156200086257600080fd5b506200086d620017e2565b6040516200087c9190620025c1565b60405180910390f35b3480156200089257600080fd5b50620008b16004803603810190620008ab919062002760565b62001806565b604051620008c0919062002589565b60405180910390f35b60007f7965db0b000000000000000000000000000000000000000000000000000000007bffffffffffffffffffffffffffffffffffffffffffffffffffffffff1916827bffffffffffffffffffffffffffffffffffffffffffffffffffffffff191614806200093f57506200093e826200184c565b5b9050919050565b7fe733b395df71d300afc4d9294f1b6cde9634302bd8c6a6ae908f569b0541e46081565b6000600254905090565b6000806000838152602001908152602001600020600101549050919050565b7f18d9ff454de989bd126b06bd404b47ede75f9e65543e94e8d212f89d7dcbb87c81565b620009c28262000974565b620009cd81620018b6565b620009d98383620018ce565b505050565b601281565b620009ed620019b3565b73ffffffffffffffffffffffffffffffffffffffff168173ffffffffffffffffffffffffffffffffffffffff161462000a5d576040517f08c379a000000000000000000000000000000000000000000000000000000000815260040162000a549062002a08565b60405180910390fd5b62000a698282620019bb565b5050565b8062000a7862001aa1565b62000aba576040517f08c379a000000000000000000000000000000000000000000000000000000000815260040162000ab19062002a7a565b60405180910390fd5b62000ae67f18d9ff454de989bd126b06bd404b47ede75f9e65543e94e8d212f89d7dcbb87c8262000dae565b1562000b29576040517f08c379a000000000000000000000000000000000000000000000000000000000815260040162000b209062002aec565b60405180910390fd5b62000b557f18d9ff454de989bd126b06bd404b47ede75f9e65543e94e8d212f89d7dcbb87c83620018ce565b6007600081548092919062000b6a9062002b3d565b91905055507fae9c2c6481964847714ce58f65a7f6dcc41d0d8394449bacdf161b5920c4744a8260405162000ba0919062002964565b60405180910390a15050565b600e5481565b6000600160008373ffffffffffffffffffffffffffffffffffffffff1673ffffffffffffffffffffffffffffffffffffffff168152602001908152602001600020549050919050565b8062000c0662001aa1565b62000c48576040517f08c379a000000000000000000000000000000000000000000000000000000000815260040162000c3f9062002a7a565b60405180910390fd5b62000c747f18d9ff454de989bd126b06bd404b47ede75f9e65543e94e8d212f89d7dcbb87c8262000dae565b1562000cb7576040517f08c379a000000000000000000000000000000000000000000000000000000000815260040162000cae9062002bda565b60405180910390fd5b60016007541162000cff576040517f08c379a000000000000000000000000000000000000000000000000000000000815260040162000cf69062002c4c565b60405180910390fd5b62000d2b7f18d9ff454de989bd126b06bd404b47ede75f9e65543e94e8d212f89d7dcbb87c83620019bb565b6007600081548092919062000d409062002c6e565b91905055507f1589f8555933761a3cff8aa925061be3b46e2dd43f621322ab611d300f62b1d98260405162000d76919062002964565b60405180910390a15050565b600d60009054906101000a900473ffffffffffffffffffffffffffffffffffffffff1681565b60045481565b600080600084815260200190815260200160002060000160008373ffffffffffffffffffffffffffffffffffffffff1673ffffffffffffffffffffffffffffffffffffffff16815260200190815260200160002060009054906101000a900460ff16905092915050565b6000801b81565b600082826000339050600073ffffffffffffffffffffffffffffffffffffffff168173ffffffffffffffffffffffffffffffffffffffff160362000e9a576040517f08c379a000000000000000000000000000000000000000000000000000000000815260040162000e919062002cec565b60405180910390fd5b600073ffffffffffffffffffffffffffffffffffffffff168373ffffffffffffffffffffffffffffffffffffffff160362000f0c576040517f08c379a000000000000000000000000000000000000000000000000000000000815260040162000f039062002d5e565b60405180910390fd5b81600160008373ffffffffffffffffffffffffffffffffffffffff1673ffffffffffffffffffffffffffffffffffffffff16815260200190815260200160002054101562000f91576040517f08c379a000000000000000000000000000000000000000000000000000000000815260040162000f889062002dd0565b60405180910390fd5b600033905062000fa381888862001ab7565b600194505050505092915050565b8062000fbc62001d3f565b62000ffe576040517f08c379a000000000000000000000000000000000000000000000000000000000815260040162000ff59062002bda565b60405180910390fd5b600a600082815260200190815260200160002060009054906101000a900460ff1662001061576040517f08c379a0000000000000000000000000000000000000000000000000000000008152600401620010589062002e42565b60405180910390fd5b600060405180606001604052803373ffffffffffffffffffffffffffffffffffffffff168152602001600b600086815260200190815260200160002060009054906101000a900473ffffffffffffffffffffffffffffffffffffffff1673ffffffffffffffffffffffffffffffffffffffff1681526020018515158152509050600c600084815260200190815260200160002081908060018154018082558091505060019003906000526020600020906002020160009091909190915060008201518160000160006101000a81548173ffffffffffffffffffffffffffffffffffffffff021916908373ffffffffffffffffffffffffffffffffffffffff16021790555060208201518160010160006101000a81548173ffffffffffffffffffffffffffffffffffffffff021916908373ffffffffffffffffffffffffffffffffffffffff16021790555060408201518160010160146101000a81548160ff0219169083151502179055505050600854600c600085815260200190815260200160002080549050106200138657600080600c600086815260200190815260200160002080549050905060005b81811015620012905760011515600c6000888152602001908152602001600020828154811062001242576200124162002e64565b5b906000526020600020906002020160010160149054906101000a900460ff161515036200127a578280620012769062002b3d565b9350505b8080620012879062002b3d565b9150506200120d565b506000600282620012a2919062002ec2565b831190506000600b600088815260200190815260200160002060009054906101000a900473ffffffffffffffffffffffffffffffffffffffff169050600a600088815260200190815260200160002060006101000a81549060ff0219169055600b600088815260200190815260200160002060006101000a81549073ffffffffffffffffffffffffffffffffffffffff02191690557f4824ad9704881d29453bcbe1bc41e840b1e55696ba8e6a73b0ca26558c056cea8282896040516200136c9392919062002efa565b60405180910390a16200138182828962001d72565b505050505b50505050565b806200139762001aa1565b620013d9576040517f08c379a0000000000000000000000000000000000000000000000000000000008152600401620013d09062002a7a565b60405180910390fd5b600081116200141f576040517f08c379a0000000000000000000000000000000000000000000000000000000008152600401620014169062002f87565b60405180910390fd5b816008819055507f86f1e9da41956a9347ec56b57c24c4b239b13c6c1f40a39a08147e8358b276d5600854604051620014599190620025f9565b60405180910390a15050565b60055481565b60006200147762001d77565b620014b9576040517f08c379a0000000000000000000000000000000000000000000000000000000008152600401620014b09062002ff9565b60405180910390fd5b60006007541162001501576040517f08c379a0000000000000000000000000000000000000000000000000000000008152600401620014f8906200306b565b60405180910390fd5b6103e842336040516020016200151992919062003102565b6040516020818303038152906040528051906020012060001c6200153e919062003132565b60098190555060001515600a6000600954815260200190815260200160002060009054906101000a900460ff16151514620015b0576040517f08c379a0000000000000000000000000000000000000000000000000000000008152600401620015a790620031ba565b60405180910390fd5b6001600a6000600954815260200190815260200160002060006101000a81548160ff02191690831515021790555033600b6000600954815260200190815260200160002060006101000a81548173ffffffffffffffffffffffffffffffffffffffff021916908373ffffffffffffffffffffffffffffffffffffffff1602179055507f59abae0fcfddf1cd723ec8da323dfbcfe71545445fddb1e782f1df0ab46393423360095460405162001667929190620031dc565b60405180910390a1600954905090565b60035481565b6000816000346103e862001692919062003209565b905080821115620016da576040517f08c379a0000000000000000000000000000000000000000000000000000000008152600401620016d190620032a4565b60405180910390fd5b620016e462001daa565b620016f0338562001e21565b600192505050919050565b620017068262000974565b6200171181620018b6565b6200171d8383620019bb565b505050565b60006200172e62001daa565b620017393362001f83565b50600033836040516200174c90620024ca565b62001759929190620033d5565b604051809103906000f08015801562001776573d6000803e3d6000fd5b509050600e60008154809291906200178e9062002b3d565b91905055506200179e8162001f9c565b80915050919050565b60065481565b6000620017db7fe733b395df71d300afc4d9294f1b6cde9634302bd8c6a6ae908f569b0541e4608362000dae565b9050919050565b7f97ddfac5979f67c8fd916096347cd37641e1137e092ecf4817fb2a3890ad327181565b60007fe733b395df71d300afc4d9294f1b6cde9634302bd8c6a6ae908f569b0541e4606200183481620018b6565b620018428360035462001fcb565b6001915050919050565b60007f01ffc9a7000000000000000000000000000000000000000000000000000000007bffffffffffffffffffffffffffffffffffffffffffffffffffffffff1916827bffffffffffffffffffffffffffffffffffffffffffffffffffffffff1916149050919050565b620018cb81620018c5620019b3565b620021a6565b50565b620018da828262000dae565b620019af57600160008084815260200190815260200160002060000160008373ffffffffffffffffffffffffffffffffffffffff1673ffffffffffffffffffffffffffffffffffffffff16815260200190815260200160002060006101000a81548160ff02191690831515021790555062001954620019b3565b73ffffffffffffffffffffffffffffffffffffffff168173ffffffffffffffffffffffffffffffffffffffff16837f2f8788117e7eff1d82e926ec794901d17c78024a50270940304540a733656f0d60405160405180910390a45b5050565b600033905090565b620019c7828262000dae565b1562001a9d57600080600084815260200190815260200160002060000160008373ffffffffffffffffffffffffffffffffffffffff1673ffffffffffffffffffffffffffffffffffffffff16815260200190815260200160002060006101000a81548160ff02191690831515021790555062001a42620019b3565b73ffffffffffffffffffffffffffffffffffffffff168173ffffffffffffffffffffffffffffffffffffffff16837ff6391f5c32d9c69d2a47ea670b442974b53935d1edc7fd64eb21e047a839171b60405160405180910390a45b5050565b600062001ab26000801b3362000dae565b905090565b600073ffffffffffffffffffffffffffffffffffffffff168373ffffffffffffffffffffffffffffffffffffffff160362001b29576040517f08c379a000000000000000000000000000000000000000000000000000000000815260040162001b209062002cec565b60405180910390fd5b600073ffffffffffffffffffffffffffffffffffffffff168273ffffffffffffffffffffffffffffffffffffffff160362001b9b576040517f08c379a000000000000000000000000000000000000000000000000000000000815260040162001b929062002d5e565b60405180910390fd5b62001ba883838362002236565b6000600160008573ffffffffffffffffffffffffffffffffffffffff1673ffffffffffffffffffffffffffffffffffffffff1681526020019081526020016000205490508181101562001c32576040517f08c379a000000000000000000000000000000000000000000000000000000000815260040162001c299062003479565b60405180910390fd5b818103600160008673ffffffffffffffffffffffffffffffffffffffff1673ffffffffffffffffffffffffffffffffffffffff1681526020019081526020016000208190555081600160008573ffffffffffffffffffffffffffffffffffffffff1673ffffffffffffffffffffffffffffffffffffffff168152602001908152602001600020600082825401925050819055508273ffffffffffffffffffffffffffffffffffffffff168473ffffffffffffffffffffffffffffffffffffffff167fddf252ad1be2c89b69c2b068fc378daa952ba7f163c4a11628f55a4df523b3ef8460405162001d249190620025f9565b60405180910390a362001d398484846200223b565b50505050565b600062001d6d7f18d9ff454de989bd126b06bd404b47ede75f9e65543e94e8d212f89d7dcbb87c3362000dae565b905090565b505050565b600062001da57fe733b395df71d300afc4d9294f1b6cde9634302bd8c6a6ae908f569b0541e4603362000dae565b905090565b600034111562001e1f57600d60009054906101000a900473ffffffffffffffffffffffffffffffffffffffff1673ffffffffffffffffffffffffffffffffffffffff166108fc349081150290604051600060405180830381858888f1935050505015801562001e1d573d6000803e3d6000fd5b505b565b600073ffffffffffffffffffffffffffffffffffffffff168273ffffffffffffffffffffffffffffffffffffffff160362001e93576040517f08c379a000000000000000000000000000000000000000000000000000000000815260040162001e8a90620034eb565b60405180910390fd5b62001ea16000838362002236565b806002600082825462001eb591906200350d565b9250508190555080600160008473ffffffffffffffffffffffffffffffffffffffff1673ffffffffffffffffffffffffffffffffffffffff168152602001908152602001600020600082825401925050819055508173ffffffffffffffffffffffffffffffffffffffff16600073ffffffffffffffffffffffffffffffffffffffff167fddf252ad1be2c89b69c2b068fc378daa952ba7f163c4a11628f55a4df523b3ef8360405162001f699190620025f9565b60405180910390a362001f7f600083836200223b565b5050565b600062001f938260065462001fcb565b60019050919050565b62001fc87fe733b395df71d300afc4d9294f1b6cde9634302bd8c6a6ae908f569b0541e46082620018ce565b50565b600073ffffffffffffffffffffffffffffffffffffffff168273ffffffffffffffffffffffffffffffffffffffff16036200203d576040517f08c379a00000000000000000000000000000000000000000000000000000000081526004016200203490620035be565b60405180910390fd5b6200204b8260008362002236565b6000600160008473ffffffffffffffffffffffffffffffffffffffff1673ffffffffffffffffffffffffffffffffffffffff16815260200190815260200160002054905081811015620020d5576040517f08c379a0000000000000000000000000000000000000000000000000000000008152600401620020cc9062003656565b60405180910390fd5b818103600160008573ffffffffffffffffffffffffffffffffffffffff1673ffffffffffffffffffffffffffffffffffffffff1681526020019081526020016000208190555081600260008282540392505081905550600073ffffffffffffffffffffffffffffffffffffffff168373ffffffffffffffffffffffffffffffffffffffff167fddf252ad1be2c89b69c2b068fc378daa952ba7f163c4a11628f55a4df523b3ef846040516200218b9190620025f9565b60405180910390a3620021a1836000846200223b565b505050565b620021b2828262000dae565b6200223257620021c28162002240565b620021d28360001c60206200226f565b604051602001620021e592919062003791565b6040516020818303038152906040526040517f08c379a000000000000000000000000000000000000000000000000000000000815260040162002229919062003825565b60405180910390fd5b5050565b505050565b505050565b6060620022688273ffffffffffffffffffffffffffffffffffffffff16601460ff166200226f565b9050919050565b60606000600283600262002284919062003209565b6200229091906200350d565b67ffffffffffffffff811115620022ac57620022ab62003849565b5b6040519080825280601f01601f191660200182016040528015620022df5781602001600182028036833780820191505090505b5090507f3000000000000000000000000000000000000000000000000000000000000000816000815181106200231a576200231962002e64565b5b60200101907effffffffffffffffffffffffffffffffffffffffffffffffffffffffffffff1916908160001a9053507f78000000000000000000000000000000000000000000000000000000000000008160018151811062002381576200238062002e64565b5b60200101907effffffffffffffffffffffffffffffffffffffffffffffffffffffffffffff1916908160001a90535060006001846002620023c3919062003209565b620023cf91906200350d565b90505b600181111562002479577f3031323334353637383961626364656600000000000000000000000000000000600f86166010811062002415576200241462002e64565b5b1a60f81b8282815181106200242f576200242e62002e64565b5b60200101907effffffffffffffffffffffffffffffffffffffffffffffffffffffffffffff1916908160001a905350600485901c945080620024719062002c6e565b9050620023d2565b5060008414620024c0576040517f08c379a0000000000000000000000000000000000000000000000000000000008152600401620024b790620038c8565b60405180910390fd5b8091505092915050565b61176980620038eb83390190565b600080fd5b60007fffffffff0000000000000000000000000000000000000000000000000000000082169050919050565b6200251481620024dd565b81146200252057600080fd5b50565b600081359050620025348162002509565b92915050565b600060208284031215620025535762002552620024d8565b5b6000620025638482850162002523565b91505092915050565b60008115159050919050565b62002583816200256c565b82525050565b6000602082019050620025a0600083018462002578565b92915050565b6000819050919050565b620025bb81620025a6565b82525050565b6000602082019050620025d86000830184620025b0565b92915050565b6000819050919050565b620025f381620025de565b82525050565b6000602082019050620026106000830184620025e8565b92915050565b6200262181620025a6565b81146200262d57600080fd5b50565b600081359050620026418162002616565b92915050565b60006020828403121562002660576200265f620024d8565b5b6000620026708482850162002630565b91505092915050565b600073ffffffffffffffffffffffffffffffffffffffff82169050919050565b6000620026a68262002679565b9050919050565b620026b88162002699565b8114620026c457600080fd5b50565b600081359050620026d881620026ad565b92915050565b60008060408385031215620026f857620026f7620024d8565b5b6000620027088582860162002630565b92505060206200271b85828601620026c7565b9150509250929050565b600060ff82169050919050565b6200273d8162002725565b82525050565b60006020820190506200275a600083018462002732565b92915050565b600060208284031215620027795762002778620024d8565b5b60006200278984828501620026c7565b91505092915050565b60006200279f8262002679565b9050919050565b620027b18162002792565b82525050565b6000602082019050620027ce6000830184620027a6565b92915050565b620027df81620025de565b8114620027eb57600080fd5b50565b600081359050620027ff81620027d4565b92915050565b600080604083850312156200281f576200281e620024d8565b5b60006200282f85828601620026c7565b92505060206200284285828601620027ee565b9150509250929050565b62002857816200256c565b81146200286357600080fd5b50565b60008135905062002877816200284c565b92915050565b60008060408385031215620028975762002896620024d8565b5b6000620028a78582860162002866565b9250506020620028ba85828601620027ee565b9150509250929050565b600060208284031215620028dd57620028dc620024d8565b5b6000620028ed84828501620027ee565b91505092915050565b600080fd5b6000819050826020604002820111156200291a5762002919620028f6565b5b92915050565b600061080082840312156200293a5762002939620024d8565b5b60006200294a84828501620028fb565b91505092915050565b6200295e8162002699565b82525050565b60006020820190506200297b600083018462002953565b92915050565b600082825260208201905092915050565b7f416363657373436f6e74726f6c3a2063616e206f6e6c792072656e6f756e636560008201527f20726f6c657320666f722073656c660000000000000000000000000000000000602082015250565b6000620029f0602f8362002981565b9150620029fd8262002992565b604082019050919050565b6000602082019050818103600083015262002a2381620029e1565b9050919050565b7f4e4f545f41444d494e0000000000000000000000000000000000000000000000600082015250565b600062002a6260098362002981565b915062002a6f8262002a2a565b602082019050919050565b6000602082019050818103600083015262002a958162002a53565b9050919050565b7f414c52454144595f50524f564944455200000000000000000000000000000000600082015250565b600062002ad460108362002981565b915062002ae18262002a9c565b602082019050919050565b6000602082019050818103600083015262002b078162002ac5565b9050919050565b7f4e487b7100000000000000000000000000000000000000000000000000000000600052601160045260246000fd5b600062002b4a82620025de565b91507fffffffffffffffffffffffffffffffffffffffffffffffffffffffffffffffff820362002b7f5762002b7e62002b0e565b5b600182019050919050565b7f4e4f545f50524f56494445520000000000000000000000000000000000000000600082015250565b600062002bc2600c8362002981565b915062002bcf8262002b8a565b602082019050919050565b6000602082019050818103600083015262002bf58162002bb3565b9050919050565b7f43616e6e6f742072656d6f766520746865206f6e6c792070726f76696465722e600082015250565b600062002c3460208362002981565b915062002c418262002bfc565b602082019050919050565b6000602082019050818103600083015262002c678162002c25565b9050919050565b600062002c7b82620025de565b91506000820362002c915762002c9062002b0e565b5b600182039050919050565b7f4552524f525f5a45524f5f414444524553535f46524f4d000000000000000000600082015250565b600062002cd460178362002981565b915062002ce18262002c9c565b602082019050919050565b6000602082019050818103600083015262002d078162002cc5565b9050919050565b7f4552524f525f5a45524f5f414444524553535f544f0000000000000000000000600082015250565b600062002d4660158362002981565b915062002d538262002d0e565b602082019050919050565b6000602082019050818103600083015262002d798162002d37565b9050919050565b7f4552524f525f414d4f554e545f455843454544535f42414c414e434500000000600082015250565b600062002db8601c8362002981565b915062002dc58262002d80565b602082019050919050565b6000602082019050818103600083015262002deb8162002da9565b9050919050565b7f524551554553545f4e4f545f464f554e44000000000000000000000000000000600082015250565b600062002e2a60118362002981565b915062002e378262002df2565b602082019050919050565b6000602082019050818103600083015262002e5d8162002e1b565b9050919050565b7f4e487b7100000000000000000000000000000000000000000000000000000000600052603260045260246000fd5b7f4e487b7100000000000000000000000000000000000000000000000000000000600052601260045260246000fd5b600062002ecf82620025de565b915062002edc83620025de565b92508262002eef5762002eee62002e93565b5b828204905092915050565b600060608201905062002f11600083018662002578565b62002f20602083018562002953565b62002f2f6040830184620025e8565b949350505050565b7f494e56414c49445f5448524553484f4c44000000000000000000000000000000600082015250565b600062002f6f60118362002981565b915062002f7c8262002f37565b602082019050919050565b6000602082019050818103600083015262002fa28162002f60565b9050919050565b7f494e56414c49445f47414d450000000000000000000000000000000000000000600082015250565b600062002fe1600c8362002981565b915062002fee8262002fa9565b602082019050919050565b60006020820190508181036000830152620030148162002fd2565b9050919050565b7f4e4f5f50524f5649444552530000000000000000000000000000000000000000600082015250565b600062003053600c8362002981565b915062003060826200301b565b602082019050919050565b60006020820190508181036000830152620030868162003044565b9050919050565b6000819050919050565b620030ac620030a682620025de565b6200308d565b82525050565b60008160601b9050919050565b6000620030cc82620030b2565b9050919050565b6000620030e082620030bf565b9050919050565b620030fc620030f68262002699565b620030d3565b82525050565b600062003110828562003097565b602082019150620031228284620030e7565b6014820191508190509392505050565b60006200313f82620025de565b91506200314c83620025de565b9250826200315f576200315e62002e93565b5b828206905092915050565b7f5452595f4c415445520000000000000000000000000000000000000000000000600082015250565b6000620031a260098362002981565b9150620031af826200316a565b602082019050919050565b60006020820190508181036000830152620031d58162003193565b9050919050565b6000604082019050620031f3600083018562002953565b620032026020830184620025e8565b9392505050565b60006200321682620025de565b91506200322383620025de565b92508282026200323381620025de565b915082820484148315176200324d576200324c62002b0e565b5b5092915050565b7f5041594d454e545f544f4f5f4c4f570000000000000000000000000000000000600082015250565b60006200328c600f8362002981565b9150620032998262003254565b602082019050919050565b60006020820190508181036000830152620032bf816200327d565b9050919050565b600060409050919050565b600081905092915050565b6000819050919050565b620032f18162002725565b82525050565b6000620033058383620032e6565b60208301905092915050565b6200331c8162002725565b81146200332857600080fd5b50565b6000813590506200333c8162003311565b92915050565b60006200335360208401846200332b565b905092915050565b6000602082019050919050565b6200337381620032c6565b6200337f8184620032d1565b92506200338c82620032dc565b8060005b83811015620033cd57620033a5828462003342565b620033b18782620032f7565b9650620033be836200335b565b92505060018101905062003390565b505050505050565b600061082082019050620033ed600083018562002953565b620033fc602083018462003368565b9392505050565b7f4552524f523a207472616e7366657220616d6f756e742065786365656473206260008201527f616c616e63650000000000000000000000000000000000000000000000000000602082015250565b60006200346160268362002981565b91506200346e8262003403565b604082019050919050565b60006020820190508181036000830152620034948162003452565b9050919050565b7f4552524f523a206d696e7420746f20746865207a65726f206164647265737300600082015250565b6000620034d3601f8362002981565b9150620034e0826200349b565b602082019050919050565b600060208201905081810360008301526200350681620034c4565b9050919050565b60006200351a82620025de565b91506200352783620025de565b925082820190508082111562003542576200354162002b0e565b5b92915050565b7f45524332303a206275726e2066726f6d20746865207a65726f2061646472657360008201527f7300000000000000000000000000000000000000000000000000000000000000602082015250565b6000620035a660218362002981565b9150620035b38262003548565b604082019050919050565b60006020820190508181036000830152620035d98162003597565b9050919050565b7f4552524f523a206275726e20616d6f756e7420657863656564732062616c616e60008201527f6365000000000000000000000000000000000000000000000000000000000000602082015250565b60006200363e60228362002981565b91506200364b82620035e0565b604082019050919050565b6000602082019050818103600083015262003671816200362f565b9050919050565b600081905092915050565b7f416363657373436f6e74726f6c3a206163636f756e7420000000000000000000600082015250565b6000620036bb60178362003678565b9150620036c88262003683565b601782019050919050565b600081519050919050565b60005b83811015620036fe578082015181840152602081019050620036e1565b60008484015250505050565b60006200371782620036d3565b62003723818562003678565b935062003735818560208601620036de565b80840191505092915050565b7f206973206d697373696e6720726f6c6520000000000000000000000000000000600082015250565b60006200377960118362003678565b9150620037868262003741565b601182019050919050565b60006200379e82620036ac565b9150620037ac82856200370a565b9150620037b9826200376a565b9150620037c782846200370a565b91508190509392505050565b6000601f19601f8301169050919050565b6000620037f182620036d3565b620037fd818562002981565b93506200380f818560208601620036de565b6200381a81620037d3565b840191505092915050565b60006020820190508181036000830152620038418184620037e4565b905092915050565b7f4e487b7100000000000000000000000000000000000000000000000000000000600052604160045260246000fd5b7f537472696e67733a20686578206c656e67746820696e73756666696369656e74600082015250565b6000620038b060208362002981565b9150620038bd8262003878565b602082019050919050565b60006020820190508181036000830152620038e381620038a1565b905091905056fe608060405260405162001769380380620017698339818101604052810190620000299190620003ed565b336000806101000a81548173ffffffffffffffffffffffffffffffffffffffff021916908373ffffffffffffffffffffffffffffffffffffffff16021790555081600160006101000a81548173ffffffffffffffffffffffffffffffffffffffff021916908373ffffffffffffffffffffffffffffffffffffffff160217905550806002906040620000bd92919062000118565b506000600160146101000a81548160ff02191690836003811115620000e757620000e662000435565b5b02179055506000600660006101000a81548160ff021916908360ff1602179055506000600781905550505062000464565b826040601f01602090048101928215620001a65791602002820160005b838211156200017557835183826101000a81548160ff021916908360ff160217905550926020019260010160208160000104928301926001030262000135565b8015620001a45782816101000a81549060ff021916905560010160208160000104928301926001030262000175565b505b509050620001b59190620001b9565b5090565b5b80821115620001d4576000816000905550600101620001ba565b5090565b6000604051905090565b600080fd5b600073ffffffffffffffffffffffffffffffffffffffff82169050919050565b60006200021482620001e7565b9050919050565b620002268162000207565b81146200023257600080fd5b50565b60008151905062000246816200021b565b92915050565b600080fd5b6000601f19601f8301169050919050565b7f4e487b7100000000000000000000000000000000000000000000000000000000600052604160045260246000fd5b6200029c8262000251565b810181811067ffffffffffffffff82111715620002be57620002bd62000262565b5b80604052505050565b6000620002d3620001d8565b9050620002e1828262000291565b919050565b600067ffffffffffffffff82111562000304576200030362000262565b5b602082029050919050565b600080fd5b600060ff82169050919050565b6200032c8162000314565b81146200033857600080fd5b50565b6000815190506200034c8162000321565b92915050565b6000620003696200036384620002e6565b620002c7565b905080602084028301858111156200038657620003856200030f565b5b835b81811015620003b357806200039e88826200033b565b84526020840193505060208101905062000388565b5050509392505050565b600082601f830112620003d557620003d46200024c565b5b6040620003e484828562000352565b91505092915050565b6000806108208385031215620004085762000407620001e2565b5b6000620004188582860162000235565b92505060206200042b85828601620003bd565b9150509250929050565b7f4e487b7100000000000000000000000000000000000000000000000000000000600052602160045260246000fd5b6112f580620004746000396000f3fe6080604052600436106100955760003560e01c806382f6c2401161005957806382f6c240146102795780638da5cb5b146102a4578063936242e3146102cf578063c45a0155146102fa578063ec7c472c1461032557610104565b80631d4ab60d1461016e578063569bd0261461019757806356d42406146101d45780636ab53f991461021157806379af65d21461023c57610104565b3661010457600160009054906101000a900473ffffffffffffffffffffffffffffffffffffffff1673ffffffffffffffffffffffffffffffffffffffff166108fc349081150290604051600060405180830381858888f19350505050158015610102573d6000803e3d6000fd5b005b600160009054906101000a900473ffffffffffffffffffffffffffffffffffffffff1673ffffffffffffffffffffffffffffffffffffffff166108fc349081150290604051600060405180830381858888f1935050505015801561016c573d6000803e3d6000fd5b005b34801561017a57600080fd5b50610195600480360381019061019091906108bc565b61034e565b005b3480156101a357600080fd5b506101be60048036038101906101b9919061094e565b6104df565b6040516101cb91906109b6565b60405180910390f35b3480156101e057600080fd5b506101fb60048036038101906101f69190610a07565b61050d565b6040516102089190610a43565b60405180910390f35b34801561021d57600080fd5b50610226610537565b6040516102339190610a6d565b60405180910390f35b34801561024857600080fd5b50610263600480360381019061025e9190610a07565b61053d565b6040516102709190610a43565b60405180910390f35b34801561028557600080fd5b5061028e610567565b60405161029b91906109b6565b60405180910390f35b3480156102b057600080fd5b506102b96105a5565b6040516102c69190610ac9565b60405180910390f35b3480156102db57600080fd5b506102e46105cb565b6040516102f19190610a43565b60405180910390f35b34801561030657600080fd5b5061030f6105de565b60405161031c9190610b43565b60405180910390f35b34801561033157600080fd5b5061034c6004803603810190610347919061094e565b610602565b005b80600160009054906101000a900473ffffffffffffffffffffffffffffffffffffffff1673ffffffffffffffffffffffffffffffffffffffff163373ffffffffffffffffffffffffffffffffffffffff16146103df576040517f08c379a00000000000000000000000000000000000000000000000000000000081526004016103d690610bbb565b60405180910390fd5b60018160ff1611610425576040517f08c379a000000000000000000000000000000000000000000000000000000000815260040161041c90610c27565b60405180910390fd5b60328160ff161061046b576040517f08c379a000000000000000000000000000000000000000000000000000000000815260040161046290610c93565b60405180910390fd5b6000600660009054906101000a900460ff1660ff16146104c0576040517f08c379a00000000000000000000000000000000000000000000000000000000081526004016104b790610cff565b60405180910390fd5b81600660006101000a81548160ff021916908360ff1602179055505050565b600080600884846040516104f4929190610d5e565b9081526020016040518091039020541415905092915050565b6004816040811061051d57600080fd5b60209182820401919006915054906101000a900460ff1681565b60075481565b6002816040811061054d57600080fd5b60209182820401919006915054906101000a900460ff1681565b60006002600381111561057d5761057c610d77565b5b600160149054906101000a900460ff16600381111561059f5761059e610d77565b5b14905090565b600160009054906101000a900473ffffffffffffffffffffffffffffffffffffffff1681565b600660009054906101000a900460ff1681565b60008054906101000a900473ffffffffffffffffffffffffffffffffffffffff1681565b81816000600381111561061857610617610d77565b5b600160149054906101000a900460ff16600381111561063a57610639610d77565b5b1461067a576040517f08c379a000000000000000000000000000000000000000000000000000000000815260040161067190610df2565b60405180910390fd5b60006008838360405161068e929190610d5e565b908152602001604051809103902054146106dd576040517f08c379a00000000000000000000000000000000000000000000000000000000081526004016106d490610e5e565b60405180910390fd5b600033905060008054906101000a900473ffffffffffffffffffffffffffffffffffffffff1673ffffffffffffffffffffffffffffffffffffffff1663fc39599c826040518263ffffffff1660e01b815260040161073b9190610e9f565b6020604051808303816000875af115801561075a573d6000803e3d6000fd5b505050506040513d601f19601f8201168201806040525081019061077e9190610ee6565b506007600081548092919061079290610f42565b9190505550600754600886866040516107ac929190610d5e565b9081526020016040518091039020819055508060096000600754815260200190815260200160002060006101000a81548173ffffffffffffffffffffffffffffffffffffffff021916908373ffffffffffffffffffffffffffffffffffffffff1602179055508484600a6000600754815260200190815260200160002091826108369291906111c6565b507f794596a2e257d92962eeb84b11b375a64b15cd9f55d55b2e0f7831d07a67439a6007548260405161086a929190611296565b60405180910390a15050505050565b600080fd5b600080fd5b600060ff82169050919050565b61089981610883565b81146108a457600080fd5b50565b6000813590506108b681610890565b92915050565b6000602082840312156108d2576108d1610879565b5b60006108e0848285016108a7565b91505092915050565b600080fd5b600080fd5b600080fd5b60008083601f84011261090e5761090d6108e9565b5b8235905067ffffffffffffffff81111561092b5761092a6108ee565b5b602083019150836001820283011115610947576109466108f3565b5b9250929050565b6000806020838503121561096557610964610879565b5b600083013567ffffffffffffffff8111156109835761098261087e565b5b61098f858286016108f8565b92509250509250929050565b60008115159050919050565b6109b08161099b565b82525050565b60006020820190506109cb60008301846109a7565b92915050565b6000819050919050565b6109e4816109d1565b81146109ef57600080fd5b50565b600081359050610a01816109db565b92915050565b600060208284031215610a1d57610a1c610879565b5b6000610a2b848285016109f2565b91505092915050565b610a3d81610883565b82525050565b6000602082019050610a586000830184610a34565b92915050565b610a67816109d1565b82525050565b6000602082019050610a826000830184610a5e565b92915050565b600073ffffffffffffffffffffffffffffffffffffffff82169050919050565b6000610ab382610a88565b9050919050565b610ac381610aa8565b82525050565b6000602082019050610ade6000830184610aba565b92915050565b6000819050919050565b6000610b09610b04610aff84610a88565b610ae4565b610a88565b9050919050565b6000610b1b82610aee565b9050919050565b6000610b2d82610b10565b9050919050565b610b3d81610b22565b82525050565b6000602082019050610b586000830184610b34565b92915050565b600082825260208201905092915050565b7f4e4f545f415554484f52495a4544000000000000000000000000000000000000600082015250565b6000610ba5600e83610b5e565b9150610bb082610b6f565b602082019050919050565b60006020820190508181036000830152610bd481610b98565b9050919050565b7f494e56414c49445f5752445f53495a4500000000000000000000000000000000600082015250565b6000610c11601083610b5e565b9150610c1c82610bdb565b602082019050919050565b60006020820190508181036000830152610c4081610c04565b9050919050565b7f494e56414c49445f574f52445f53495a45000000000000000000000000000000600082015250565b6000610c7d601183610b5e565b9150610c8882610c47565b602082019050919050565b60006020820190508181036000830152610cac81610c70565b9050919050565b7f53495a455f414c52454144595f53455400000000000000000000000000000000600082015250565b6000610ce9601083610b5e565b9150610cf482610cb3565b602082019050919050565b60006020820190508181036000830152610d1881610cdc565b9050919050565b600081905092915050565b82818337600083830152505050565b6000610d458385610d1f565b9350610d52838584610d2a565b82840190509392505050565b6000610d6b828486610d39565b91508190509392505050565b7f4e487b7100000000000000000000000000000000000000000000000000000000600052602160045260246000fd5b7f47414d455f4e4f545f4f50454e00000000000000000000000000000000000000600082015250565b6000610ddc600d83610b5e565b9150610de782610da6565b602082019050919050565b60006020820190508181036000830152610e0b81610dcf565b9050919050565b7f574f52445f414c52454144595f54414b454e0000000000000000000000000000600082015250565b6000610e48601283610b5e565b9150610e5382610e12565b602082019050919050565b60006020820190508181036000830152610e7781610e3b565b9050919050565b6000610e8982610a88565b9050919050565b610e9981610e7e565b82525050565b6000602082019050610eb46000830184610e90565b92915050565b610ec38161099b565b8114610ece57600080fd5b50565b600081519050610ee081610eba565b92915050565b600060208284031215610efc57610efb610879565b5b6000610f0a84828501610ed1565b91505092915050565b7f4e487b7100000000000000000000000000000000000000000000000000000000600052601160045260246000fd5b6000610f4d826109d1565b91507fffffffffffffffffffffffffffffffffffffffffffffffffffffffffffffffff8203610f7f57610f7e610f13565b5b600182019050919050565b600082905092915050565b7f4e487b7100000000000000000000000000000000000000000000000000000000600052604160045260246000fd5b7f4e487b7100000000000000000000000000000000000000000000000000000000600052602260045260246000fd5b6000600282049050600182168061100b57607f821691505b60208210810361101e5761101d610fc4565b5b50919050565b60008190508160005260206000209050919050565b60006020601f8301049050919050565b600082821b905092915050565b6000600883026110867fffffffffffffffffffffffffffffffffffffffffffffffffffffffffffffffff82611049565b6110908683611049565b95508019841693508086168417925050509392505050565b60006110c36110be6110b9846109d1565b610ae4565b6109d1565b9050919050565b6000819050919050565b6110dd836110a8565b6110f16110e9826110ca565b848454611056565b825550505050565b600090565b6111066110f9565b6111118184846110d4565b505050565b5b818110156111355761112a6000826110fe565b600181019050611117565b5050565b601f82111561117a5761114b81611024565b61115484611039565b81016020851015611163578190505b61117761116f85611039565b830182611116565b50505b505050565b600082821c905092915050565b600061119d6000198460080261117f565b1980831691505092915050565b60006111b6838361118c565b9150826002028217905092915050565b6111d08383610f8a565b67ffffffffffffffff8111156111e9576111e8610f95565b5b6111f38254610ff3565b6111fe828285611139565b6000601f83116001811461122d576000841561121b578287013590505b61122585826111aa565b86555061128d565b601f19841661123b86611024565b60005b828110156112635784890135825560018201915060208501945060208101905061123e565b86831015611280578489013561127c601f89168261118c565b8355505b6001600288020188555050505b50505050505050565b60006040820190506112ab6000830185610a5e565b6112b86020830184610e90565b939250505056fea2646970667358221220663cb6d5486d7eadd5d8ad31e46c574c10c1a3d2f073be8b77e38151aa2659b864736f6c63430008110033a26469706673582212207b25b9c18ff154a1b0b256cd6acad94472f34acad71d712b756a26e129238d9f64736f6c63430008110033",
  "linkReferences": {},
  "deployedLinkReferences": {}
}