{
  "_format": "hh-sol-artifact-1",
  "contractName": "WordToken",
  "sourceName": "contracts/WordToken.sol",
  "abi": [
    {
      "inputs": [],
      "stateMutability": "nonpayable",
      "type": "constructor"
    },
    {
      "anonymous": false,
      "inputs": [
        {
          "indexed": true,
          "internalType": "bytes32",
          "name": "role",
          "type": "bytes32"
        },
        {
          "indexed": true,
          "internalType": "bytes32",
          "name": "previousAdminRole",
          "type": "bytes32"
        },
        {
          "indexed": true,
          "internalType": "bytes32",
          "name": "newAdminRole",
          "type": "bytes32"
        }
      ],
      "name": "RoleAdminChanged",
      "type": "event"
    },
    {
      "anonymous": false,
      "inputs": [
        {
          "indexed": true,
          "internalType": "bytes32",
          "name": "role",
          "type": "bytes32"
        },
        {
          "indexed": true,
          "internalType": "address",
          "name": "account",
          "type": "address"
        },
        {
          "indexed": true,
          "internalType": "address",
          "name": "sender",
          "type": "address"
        }
      ],
      "name": "RoleGranted",
      "type": "event"
    },
    {
      "anonymous": false,
      "inputs": [
        {
          "indexed": true,
          "internalType": "bytes32",
          "name": "role",
          "type": "bytes32"
        },
        {
          "indexed": true,
          "internalType": "address",
          "name": "account",
          "type": "address"
        },
        {
          "indexed": true,
          "internalType": "address",
          "name": "sender",
          "type": "address"
        }
      ],
      "name": "RoleRevoked",
      "type": "event"
    },
    {
      "anonymous": false,
      "inputs": [
        {
          "indexed": true,
          "internalType": "address",
          "name": "from",
          "type": "address"
        },
        {
          "indexed": true,
          "internalType": "address",
          "name": "to",
          "type": "address"
        },
        {
          "indexed": false,
          "internalType": "uint256",
          "name": "value",
          "type": "uint256"
        }
      ],
      "name": "Transfer",
      "type": "event"
    },
    {
      "inputs": [],
      "name": "DEFAULT_ADMIN_ROLE",
      "outputs": [
        {
          "internalType": "bytes32",
          "name": "",
          "type": "bytes32"
        }
      ],
      "stateMutability": "view",
      "type": "function"
    },
    {
      "inputs": [],
      "name": "GAME_OWNER_ROLE",
      "outputs": [
        {
          "internalType": "bytes32",
          "name": "",
          "type": "bytes32"
        }
      ],
      "stateMutability": "view",
      "type": "function"
    },
    {
      "inputs": [],
      "name": "LOCAL_GAMES_ROLE",
      "outputs": [
        {
          "internalType": "bytes32",
          "name": "",
          "type": "bytes32"
        }
      ],
      "stateMutability": "view",
      "type": "function"
    },
    {
      "inputs": [],
      "name": "PROVIDER_ROLE",
      "outputs": [
        {
          "internalType": "bytes32",
          "name": "",
          "type": "bytes32"
        }
      ],
      "stateMutability": "view",
      "type": "function"
    },
    {
      "inputs": [
        {
          "internalType": "address",
          "name": "account",
          "type": "address"
        }
      ],
      "name": "balanceOf",
      "outputs": [
        {
          "internalType": "uint256",
          "name": "",
          "type": "uint256"
        }
      ],
      "stateMutability": "view",
      "type": "function"
    },
    {
      "inputs": [
        {
          "internalType": "address",
          "name": "user",
          "type": "address"
        }
      ],
      "name": "chargeGuess",
      "outputs": [
        {
          "internalType": "bool",
          "name": "",
          "type": "bool"
        }
      ],
      "stateMutability": "nonpayable",
      "type": "function"
    },
    {
      "inputs": [],
      "name": "decimals",
      "outputs": [
        {
          "internalType": "uint8",
          "name": "",
          "type": "uint8"
        }
      ],
      "stateMutability": "view",
      "type": "function"
    },
    {
      "inputs": [
        {
          "internalType": "bytes32",
          "name": "role",
          "type": "bytes32"
        }
      ],
      "name": "getRoleAdmin",
      "outputs": [
        {
          "internalType": "bytes32",
          "name": "",
          "type": "bytes32"
        }
      ],
      "stateMutability": "view",
      "type": "function"
    },
    {
      "inputs": [
        {
          "internalType": "bytes32",
          "name": "role",
          "type": "bytes32"
        },
        {
          "internalType": "address",
          "name": "account",
          "type": "address"
        }
      ],
      "name": "grantRole",
      "outputs": [],
      "stateMutability": "nonpayable",
      "type": "function"
    },
    {
      "inputs": [
        {
          "internalType": "bytes32",
          "name": "role",
          "type": "bytes32"
        },
        {
          "internalType": "address",
          "name": "account",
          "type": "address"
        }
      ],
      "name": "hasRole",
      "outputs": [
        {
          "internalType": "bool",
          "name": "",
          "type": "bool"
        }
      ],
      "stateMutability": "view",
      "type": "function"
    },
    {
      "inputs": [],
      "name": "ownerPremium",
      "outputs": [
        {
          "internalType": "uint256",
          "name": "",
          "type": "uint256"
        }
      ],
      "stateMutability": "view",
      "type": "function"
    },
    {
      "inputs": [
        {
          "internalType": "bytes32",
          "name": "role",
          "type": "bytes32"
        },
        {
          "internalType": "address",
          "name": "account",
          "type": "address"
        }
      ],
      "name": "renounceRole",
      "outputs": [],
      "stateMutability": "nonpayable",
      "type": "function"
    },
    {
      "inputs": [
        {
          "internalType": "bytes32",
          "name": "role",
          "type": "bytes32"
        },
        {
          "internalType": "address",
          "name": "account",
          "type": "address"
        }
      ],
      "name": "revokeRole",
      "outputs": [],
      "stateMutability": "nonpayable",
      "type": "function"
    },
    {
      "inputs": [
        {
          "internalType": "bytes4",
          "name": "interfaceId",
          "type": "bytes4"
        }
      ],
      "name": "supportsInterface",
      "outputs": [
        {
          "internalType": "bool",
          "name": "",
          "type": "bool"
        }
      ],
      "stateMutability": "view",
      "type": "function"
    },
    {
      "inputs": [],
      "name": "totalSupply",
      "outputs": [
        {
          "internalType": "uint256",
          "name": "",
          "type": "uint256"
        }
      ],
      "stateMutability": "view",
      "type": "function"
    },
    {
      "inputs": [
        {
          "internalType": "address",
          "name": "to",
          "type": "address"
        },
        {
          "internalType": "uint256",
          "name": "amount",
          "type": "uint256"
        }
      ],
      "name": "transfer",
      "outputs": [
        {
          "internalType": "bool",
          "name": "",
          "type": "bool"
        }
      ],
      "stateMutability": "nonpayable",
      "type": "function"
    },
    {
      "inputs": [],
      "name": "userGuessCost",
      "outputs": [
        {
          "internalType": "uint256",
          "name": "",
          "type": "uint256"
        }
      ],
      "stateMutability": "view",
      "type": "function"
    },
    {
      "inputs": [],
      "name": "userNewGameCost",
      "outputs": [
        {
          "internalType": "uint256",
          "name": "",
          "type": "uint256"
        }
      ],
      "stateMutability": "view",
      "type": "function"
    },
    {
      "inputs": [],
      "name": "userPremium",
      "outputs": [
        {
          "internalType": "uint256",
          "name": "",
          "type": "uint256"
        }
      ],
      "stateMutability": "view",
      "type": "function"
    }
  ],
  "bytecode": "0x60806040523480156200001157600080fd5b50620000276000801b336200004d60201b60201c565b6032600381905550603260058190555060326006819055506064600681905550620001c6565b6200005f82826200006360201b60201c565b5050565b6200007582826200015460201b60201c565b6200015057600160008084815260200190815260200160002060000160008373ffffffffffffffffffffffffffffffffffffffff1673ffffffffffffffffffffffffffffffffffffffff16815260200190815260200160002060006101000a81548160ff021916908315150217905550620000f5620001be60201b60201c565b73ffffffffffffffffffffffffffffffffffffffff168173ffffffffffffffffffffffffffffffffffffffff16837f2f8788117e7eff1d82e926ec794901d17c78024a50270940304540a733656f0d60405160405180910390a45b5050565b600080600084815260200190815260200160002060000160008373ffffffffffffffffffffffffffffffffffffffff1673ffffffffffffffffffffffffffffffffffffffff16815260200190815260200160002060009054906101000a900460ff16905092915050565b600033905090565b611bca80620001d66000396000f3fe608060405234801561001057600080fd5b50600436106101215760003560e01c80638eaf68bd116100ad578063c65ae7f011610071578063c65ae7f014610320578063d547741f1461033e578063e00e02191461035a578063ee85647114610378578063fc39599c1461039657610121565b80638eaf68bd1461026657806391d1485414610284578063a217fddf146102b4578063a9059cbb146102d2578063b9d5fcdc1461030257610121565b806324c20a34116100f457806324c20a34146101c25780632f2ff15d146101e0578063313ce567146101fc57806336568abe1461021a57806370a082311461023657610121565b806301ffc9a7146101265780630ceb715e1461015657806318160ddd14610174578063248a9ca314610192575b600080fd5b610140600480360381019061013b919061121e565b6103c6565b60405161014d9190611266565b60405180910390f35b61015e610440565b60405161016b919061129a565b60405180910390f35b61017c610464565b60405161018991906112ce565b60405180910390f35b6101ac60048036038101906101a79190611315565b61046e565b6040516101b9919061129a565b60405180910390f35b6101ca61048d565b6040516101d7919061129a565b60405180910390f35b6101fa60048036038101906101f591906113a0565b6104b1565b005b6102046104d2565b60405161021191906113fc565b60405180910390f35b610234600480360381019061022f91906113a0565b6104d7565b005b610250600480360381019061024b9190611417565b61055a565b60405161025d91906112ce565b60405180910390f35b61026e6105a3565b60405161027b91906112ce565b60405180910390f35b61029e600480360381019061029991906113a0565b6105a9565b6040516102ab9190611266565b60405180910390f35b6102bc610613565b6040516102c9919061129a565b60405180910390f35b6102ec60048036038101906102e79190611470565b61061a565b6040516102f99190611266565b60405180910390f35b61030a6107a1565b60405161031791906112ce565b60405180910390f35b6103286107a7565b60405161033591906112ce565b60405180910390f35b610358600480360381019061035391906113a0565b6107ad565b005b6103626107ce565b60405161036f91906112ce565b60405180910390f35b6103806107d4565b60405161038d919061129a565b60405180910390f35b6103b060048036038101906103ab9190611417565b6107f8565b6040516103bd9190611266565b60405180910390f35b60007f7965db0b000000000000000000000000000000000000000000000000000000007bffffffffffffffffffffffffffffffffffffffffffffffffffffffff1916827bffffffffffffffffffffffffffffffffffffffffffffffffffffffff1916148061043957506104388261083a565b5b9050919050565b7fe733b395df71d300afc4d9294f1b6cde9634302bd8c6a6ae908f569b0541e46081565b6000600254905090565b6000806000838152602001908152602001600020600101549050919050565b7f18d9ff454de989bd126b06bd404b47ede75f9e65543e94e8d212f89d7dcbb87c81565b6104ba8261046e565b6104c3816108a4565b6104cd83836108b8565b505050565b601281565b6104df610998565b73ffffffffffffffffffffffffffffffffffffffff168173ffffffffffffffffffffffffffffffffffffffff161461054c576040517f08c379a000000000000000000000000000000000000000000000000000000000815260040161054390611533565b60405180910390fd5b61055682826109a0565b5050565b6000600160008373ffffffffffffffffffffffffffffffffffffffff1673ffffffffffffffffffffffffffffffffffffffff168152602001908152602001600020549050919050565b60045481565b600080600084815260200190815260200160002060000160008373ffffffffffffffffffffffffffffffffffffffff1673ffffffffffffffffffffffffffffffffffffffff16815260200190815260200160002060009054906101000a900460ff16905092915050565b6000801b81565b600082826000339050600073ffffffffffffffffffffffffffffffffffffffff168173ffffffffffffffffffffffffffffffffffffffff1603610692576040517f08c379a00000000000000000000000000000000000000000000000000000000081526004016106899061159f565b60405180910390fd5b600073ffffffffffffffffffffffffffffffffffffffff168373ffffffffffffffffffffffffffffffffffffffff1603610701576040517f08c379a00000000000000000000000000000000000000000000000000000000081526004016106f89061160b565b60405180910390fd5b81600160008373ffffffffffffffffffffffffffffffffffffffff1673ffffffffffffffffffffffffffffffffffffffff168152602001908152602001600020541015610783576040517f08c379a000000000000000000000000000000000000000000000000000000000815260040161077a90611677565b60405180910390fd5b6000339050610793818888610a81565b600194505050505092915050565b60055481565b60035481565b6107b68261046e565b6107bf816108a4565b6107c983836109a0565b505050565b60065481565b7f97ddfac5979f67c8fd916096347cd37641e1137e092ecf4817fb2a3890ad327181565b60007fe733b395df71d300afc4d9294f1b6cde9634302bd8c6a6ae908f569b0541e460610824816108a4565b61083083600354610cfa565b6001915050919050565b60007f01ffc9a7000000000000000000000000000000000000000000000000000000007bffffffffffffffffffffffffffffffffffffffffffffffffffffffff1916827bffffffffffffffffffffffffffffffffffffffffffffffffffffffff1916149050919050565b6108b5816108b0610998565b610ec9565b50565b6108c282826105a9565b61099457600160008084815260200190815260200160002060000160008373ffffffffffffffffffffffffffffffffffffffff1673ffffffffffffffffffffffffffffffffffffffff16815260200190815260200160002060006101000a81548160ff021916908315150217905550610939610998565b73ffffffffffffffffffffffffffffffffffffffff168173ffffffffffffffffffffffffffffffffffffffff16837f2f8788117e7eff1d82e926ec794901d17c78024a50270940304540a733656f0d60405160405180910390a45b5050565b600033905090565b6109aa82826105a9565b15610a7d57600080600084815260200190815260200160002060000160008373ffffffffffffffffffffffffffffffffffffffff1673ffffffffffffffffffffffffffffffffffffffff16815260200190815260200160002060006101000a81548160ff021916908315150217905550610a22610998565b73ffffffffffffffffffffffffffffffffffffffff168173ffffffffffffffffffffffffffffffffffffffff16837ff6391f5c32d9c69d2a47ea670b442974b53935d1edc7fd64eb21e047a839171b60405160405180910390a45b5050565b600073ffffffffffffffffffffffffffffffffffffffff168373ffffffffffffffffffffffffffffffffffffffff1603610af0576040517f08c379a0000000000000000000000000000000000000000000000000000000008152600401610ae79061159f565b60405180910390fd5b600073ffffffffffffffffffffffffffffffffffffffff168273ffffffffffffffffffffffffffffffffffffffff1603610b5f576040517f08c379a0000000000000000000000000000000000000000000000000000000008152600401610b569061160b565b60405180910390fd5b610b6a838383610f4e565b6000600160008573ffffffffffffffffffffffffffffffffffffffff1673ffffffffffffffffffffffffffffffffffffffff16815260200190815260200160002054905081811015610bf1576040517f08c379a0000000000000000000000000000000000000000000000000000000008152600401610be890611709565b60405180910390fd5b818103600160008673ffffffffffffffffffffffffffffffffffffffff1673ffffffffffffffffffffffffffffffffffffffff1681526020019081526020016000208190555081600160008573ffffffffffffffffffffffffffffffffffffffff1673ffffffffffffffffffffffffffffffffffffffff168152602001908152602001600020600082825401925050819055508273ffffffffffffffffffffffffffffffffffffffff168473ffffffffffffffffffffffffffffffffffffffff167fddf252ad1be2c89b69c2b068fc378daa952ba7f163c4a11628f55a4df523b3ef84604051610ce191906112ce565b60405180910390a3610cf4848484610f53565b50505050565b600073ffffffffffffffffffffffffffffffffffffffff168273ffffffffffffffffffffffffffffffffffffffff1603610d69576040517f08c379a0000000000000000000000000000000000000000000000000000000008152600401610d609061179b565b60405180910390fd5b610d7582600083610f4e565b6000600160008473ffffffffffffffffffffffffffffffffffffffff1673ffffffffffffffffffffffffffffffffffffffff16815260200190815260200160002054905081811015610dfc576040517f08c379a0000000000000000000000000000000000000000000000000000000008152600401610df39061182d565b60405180910390fd5b818103600160008573ffffffffffffffffffffffffffffffffffffffff1673ffffffffffffffffffffffffffffffffffffffff1681526020019081526020016000208190555081600260008282540392505081905550600073ffffffffffffffffffffffffffffffffffffffff168373ffffffffffffffffffffffffffffffffffffffff167fddf252ad1be2c89b69c2b068fc378daa952ba7f163c4a11628f55a4df523b3ef84604051610eb091906112ce565b60405180910390a3610ec483600084610f53565b505050565b610ed382826105a9565b610f4a57610ee081610f58565b610eee8360001c6020610f85565b604051602001610eff929190611956565b6040516020818303038152906040526040517f08c379a0000000000000000000000000000000000000000000000000000000008152600401610f4191906119da565b60405180910390fd5b5050565b505050565b505050565b6060610f7e8273ffffffffffffffffffffffffffffffffffffffff16601460ff16610f85565b9050919050565b606060006002836002610f989190611a2b565b610fa29190611a6d565b67ffffffffffffffff811115610fbb57610fba611aa1565b5b6040519080825280601f01601f191660200182016040528015610fed5781602001600182028036833780820191505090505b5090507f30000000000000000000000000000000000000000000000000000000000000008160008151811061102557611024611ad0565b5b60200101907effffffffffffffffffffffffffffffffffffffffffffffffffffffffffffff1916908160001a9053507f78000000000000000000000000000000000000000000000000000000000000008160018151811061108957611088611ad0565b5b60200101907effffffffffffffffffffffffffffffffffffffffffffffffffffffffffffff1916908160001a905350600060018460026110c99190611a2b565b6110d39190611a6d565b90505b6001811115611173577f3031323334353637383961626364656600000000000000000000000000000000600f86166010811061111557611114611ad0565b5b1a60f81b82828151811061112c5761112b611ad0565b5b60200101907effffffffffffffffffffffffffffffffffffffffffffffffffffffffffffff1916908160001a905350600485901c94508061116c90611aff565b90506110d6565b50600084146111b7576040517f08c379a00000000000000000000000000000000000000000000000000000000081526004016111ae90611b74565b60405180910390fd5b8091505092915050565b600080fd5b60007fffffffff0000000000000000000000000000000000000000000000000000000082169050919050565b6111fb816111c6565b811461120657600080fd5b50565b600081359050611218816111f2565b92915050565b600060208284031215611234576112336111c1565b5b600061124284828501611209565b91505092915050565b60008115159050919050565b6112608161124b565b82525050565b600060208201905061127b6000830184611257565b92915050565b6000819050919050565b61129481611281565b82525050565b60006020820190506112af600083018461128b565b92915050565b6000819050919050565b6112c8816112b5565b82525050565b60006020820190506112e360008301846112bf565b92915050565b6112f281611281565b81146112fd57600080fd5b50565b60008135905061130f816112e9565b92915050565b60006020828403121561132b5761132a6111c1565b5b600061133984828501611300565b91505092915050565b600073ffffffffffffffffffffffffffffffffffffffff82169050919050565b600061136d82611342565b9050919050565b61137d81611362565b811461138857600080fd5b50565b60008135905061139a81611374565b92915050565b600080604083850312156113b7576113b66111c1565b5b60006113c585828601611300565b92505060206113d68582860161138b565b9150509250929050565b600060ff82169050919050565b6113f6816113e0565b82525050565b600060208201905061141160008301846113ed565b92915050565b60006020828403121561142d5761142c6111c1565b5b600061143b8482850161138b565b91505092915050565b61144d816112b5565b811461145857600080fd5b50565b60008135905061146a81611444565b92915050565b60008060408385031215611487576114866111c1565b5b60006114958582860161138b565b92505060206114a68582860161145b565b9150509250929050565b600082825260208201905092915050565b7f416363657373436f6e74726f6c3a2063616e206f6e6c792072656e6f756e636560008201527f20726f6c657320666f722073656c660000000000000000000000000000000000602082015250565b600061151d602f836114b0565b9150611528826114c1565b604082019050919050565b6000602082019050818103600083015261154c81611510565b9050919050565b7f4552524f525f5a45524f5f414444524553535f46524f4d000000000000000000600082015250565b60006115896017836114b0565b915061159482611553565b602082019050919050565b600060208201905081810360008301526115b88161157c565b9050919050565b7f4552524f525f5a45524f5f414444524553535f544f0000000000000000000000600082015250565b60006115f56015836114b0565b9150611600826115bf565b602082019050919050565b60006020820190508181036000830152611624816115e8565b9050919050565b7f4552524f525f414d4f554e545f455843454544535f42414c414e434500000000600082015250565b6000611661601c836114b0565b915061166c8261162b565b602082019050919050565b6000602082019050818103600083015261169081611654565b9050919050565b7f4552524f523a207472616e7366657220616d6f756e742065786365656473206260008201527f616c616e63650000000000000000000000000000000000000000000000000000602082015250565b60006116f36026836114b0565b91506116fe82611697565b604082019050919050565b60006020820190508181036000830152611722816116e6565b9050919050565b7f45524332303a206275726e2066726f6d20746865207a65726f2061646472657360008201527f7300000000000000000000000000000000000000000000000000000000000000602082015250565b60006117856021836114b0565b915061179082611729565b604082019050919050565b600060208201905081810360008301526117b481611778565b9050919050565b7f4552524f523a206275726e20616d6f756e7420657863656564732062616c616e60008201527f6365000000000000000000000000000000000000000000000000000000000000602082015250565b60006118176022836114b0565b9150611822826117bb565b604082019050919050565b600060208201905081810360008301526118468161180a565b9050919050565b600081905092915050565b7f416363657373436f6e74726f6c3a206163636f756e7420000000000000000000600082015250565b600061188e60178361184d565b915061189982611858565b601782019050919050565b600081519050919050565b60005b838110156118cd5780820151818401526020810190506118b2565b60008484015250505050565b60006118e4826118a4565b6118ee818561184d565b93506118fe8185602086016118af565b80840191505092915050565b7f206973206d697373696e6720726f6c6520000000000000000000000000000000600082015250565b600061194060118361184d565b915061194b8261190a565b601182019050919050565b600061196182611881565b915061196d82856118d9565b915061197882611933565b915061198482846118d9565b91508190509392505050565b6000601f19601f8301169050919050565b60006119ac826118a4565b6119b681856114b0565b93506119c68185602086016118af565b6119cf81611990565b840191505092915050565b600060208201905081810360008301526119f481846119a1565b905092915050565b7f4e487b7100000000000000000000000000000000000000000000000000000000600052601160045260246000fd5b6000611a36826112b5565b9150611a41836112b5565b9250828202611a4f816112b5565b91508282048414831517611a6657611a656119fc565b5b5092915050565b6000611a78826112b5565b9150611a83836112b5565b9250828201905080821115611a9b57611a9a6119fc565b5b92915050565b7f4e487b7100000000000000000000000000000000000000000000000000000000600052604160045260246000fd5b7f4e487b7100000000000000000000000000000000000000000000000000000000600052603260045260246000fd5b6000611b0a826112b5565b915060008203611b1d57611b1c6119fc565b5b600182039050919050565b7f537472696e67733a20686578206c656e67746820696e73756666696369656e74600082015250565b6000611b5e6020836114b0565b9150611b6982611b28565b602082019050919050565b60006020820190508181036000830152611b8d81611b51565b905091905056fea264697066735822122008ed0260e7f47305ed18108f76f5c3df368c8d1b86c213a34d9f4039f83ea2e864736f6c63430008110033",
  "linkReferences": {},
  "deployedLinkReferences": {}
}