{
  "_format": "hh-sol-artifact-1",
  "contractName": "WordGame",
  "sourceName": "contracts/WordGame.sol",
  "abi": [
    {
      "inputs": [
        {
          "internalType": "address",
          "name": "_owner",
          "type": "address"
        },
        {
          "internalType": "uint8[64]",
          "name": "_secret",
          "type": "uint8[64]"
        }
      ],
      "stateMutability": "payable",
      "type": "constructor"
    },
    {
      "anonymous": false,
      "inputs": [
        {
          "indexed": false,
          "internalType": "uint256",
          "name": "id",
          "type": "uint256"
        }
      ],
      "name": "ClosedGame",
      "type": "event"
    },
    {
      "anonymous": false,
      "inputs": [
        {
          "indexed": false,
          "internalType": "uint256",
          "name": "id",
          "type": "uint256"
        },
        {
          "indexed": false,
          "internalType": "address",
          "name": "user",
          "type": "address"
        }
      ],
      "name": "UserGuess",
      "type": "event"
    },
    {
      "stateMutability": "payable",
      "type": "fallback"
    },
    {
      "inputs": [],
      "name": "factory",
      "outputs": [
        {
          "internalType": "contract WordFactory",
          "name": "",
          "type": "address"
        }
      ],
      "stateMutability": "view",
      "type": "function"
    },
    {
      "inputs": [],
      "name": "guess_counter",
      "outputs": [
        {
          "internalType": "uint256",
          "name": "",
          "type": "uint256"
        }
      ],
      "stateMutability": "view",
      "type": "function"
    },
    {
      "inputs": [],
      "name": "isStatusPending",
      "outputs": [
        {
          "internalType": "bool",
          "name": "",
          "type": "bool"
        }
      ],
      "stateMutability": "view",
      "type": "function"
    },
    {
      "inputs": [
        {
          "internalType": "string",
          "name": "word",
          "type": "string"
        }
      ],
      "name": "isWordGuessed",
      "outputs": [
        {
          "internalType": "bool",
          "name": "",
          "type": "bool"
        }
      ],
      "stateMutability": "view",
      "type": "function"
    },
    {
      "inputs": [
        {
          "internalType": "uint256",
          "name": "",
          "type": "uint256"
        }
      ],
      "name": "key",
      "outputs": [
        {
          "internalType": "uint8",
          "name": "",
          "type": "uint8"
        }
      ],
      "stateMutability": "view",
      "type": "function"
    },
    {
      "inputs": [
        {
          "internalType": "string",
          "name": "word",
          "type": "string"
        }
      ],
      "name": "makeGuess",
      "outputs": [],
      "stateMutability": "nonpayable",
      "type": "function"
    },
    {
      "inputs": [],
      "name": "owner",
      "outputs": [
        {
          "internalType": "address payable",
          "name": "",
          "type": "address"
        }
      ],
      "stateMutability": "view",
      "type": "function"
    },
    {
      "inputs": [
        {
          "internalType": "uint256",
          "name": "",
          "type": "uint256"
        }
      ],
      "name": "secret",
      "outputs": [
        {
          "internalType": "uint8",
          "name": "",
          "type": "uint8"
        }
      ],
      "stateMutability": "view",
      "type": "function"
    },
    {
      "inputs": [
        {
          "internalType": "uint8",
          "name": "size",
          "type": "uint8"
        }
      ],
      "name": "setWordSize",
      "outputs": [],
      "stateMutability": "nonpayable",
      "type": "function"
    },
    {
      "inputs": [],
      "name": "word_size",
      "outputs": [
        {
          "internalType": "uint8",
          "name": "",
          "type": "uint8"
        }
      ],
      "stateMutability": "view",
      "type": "function"
    },
    {
      "stateMutability": "payable",
      "type": "receive"
    }
  ],
  "bytecode": "0x608060405260405162001769380380620017698339818101604052810190620000299190620003ed565b336000806101000a81548173ffffffffffffffffffffffffffffffffffffffff021916908373ffffffffffffffffffffffffffffffffffffffff16021790555081600160006101000a81548173ffffffffffffffffffffffffffffffffffffffff021916908373ffffffffffffffffffffffffffffffffffffffff160217905550806002906040620000bd92919062000118565b506000600160146101000a81548160ff02191690836003811115620000e757620000e662000435565b5b02179055506000600660006101000a81548160ff021916908360ff1602179055506000600781905550505062000464565b826040601f01602090048101928215620001a65791602002820160005b838211156200017557835183826101000a81548160ff021916908360ff160217905550926020019260010160208160000104928301926001030262000135565b8015620001a45782816101000a81549060ff021916905560010160208160000104928301926001030262000175565b505b509050620001b59190620001b9565b5090565b5b80821115620001d4576000816000905550600101620001ba565b5090565b6000604051905090565b600080fd5b600073ffffffffffffffffffffffffffffffffffffffff82169050919050565b60006200021482620001e7565b9050919050565b620002268162000207565b81146200023257600080fd5b50565b60008151905062000246816200021b565b92915050565b600080fd5b6000601f19601f8301169050919050565b7f4e487b7100000000000000000000000000000000000000000000000000000000600052604160045260246000fd5b6200029c8262000251565b810181811067ffffffffffffffff82111715620002be57620002bd62000262565b5b80604052505050565b6000620002d3620001d8565b9050620002e1828262000291565b919050565b600067ffffffffffffffff82111562000304576200030362000262565b5b602082029050919050565b600080fd5b600060ff82169050919050565b6200032c8162000314565b81146200033857600080fd5b50565b6000815190506200034c8162000321565b92915050565b6000620003696200036384620002e6565b620002c7565b905080602084028301858111156200038657620003856200030f565b5b835b81811015620003b357806200039e88826200033b565b84526020840193505060208101905062000388565b5050509392505050565b600082601f830112620003d557620003d46200024c565b5b6040620003e484828562000352565b91505092915050565b6000806108208385031215620004085762000407620001e2565b5b6000620004188582860162000235565b92505060206200042b85828601620003bd565b9150509250929050565b7f4e487b7100000000000000000000000000000000000000000000000000000000600052602160045260246000fd5b6112f580620004746000396000f3fe6080604052600436106100955760003560e01c806382f6c2401161005957806382f6c240146102795780638da5cb5b146102a4578063936242e3146102cf578063c45a0155146102fa578063ec7c472c1461032557610104565b80631d4ab60d1461016e578063569bd0261461019757806356d42406146101d45780636ab53f991461021157806379af65d21461023c57610104565b3661010457600160009054906101000a900473ffffffffffffffffffffffffffffffffffffffff1673ffffffffffffffffffffffffffffffffffffffff166108fc349081150290604051600060405180830381858888f19350505050158015610102573d6000803e3d6000fd5b005b600160009054906101000a900473ffffffffffffffffffffffffffffffffffffffff1673ffffffffffffffffffffffffffffffffffffffff166108fc349081150290604051600060405180830381858888f1935050505015801561016c573d6000803e3d6000fd5b005b34801561017a57600080fd5b50610195600480360381019061019091906108bc565b61034e565b005b3480156101a357600080fd5b506101be60048036038101906101b9919061094e565b6104df565b6040516101cb91906109b6565b60405180910390f35b3480156101e057600080fd5b506101fb60048036038101906101f69190610a07565b61050d565b6040516102089190610a43565b60405180910390f35b34801561021d57600080fd5b50610226610537565b6040516102339190610a6d565b60405180910390f35b34801561024857600080fd5b50610263600480360381019061025e9190610a07565b61053d565b6040516102709190610a43565b60405180910390f35b34801561028557600080fd5b5061028e610567565b60405161029b91906109b6565b60405180910390f35b3480156102b057600080fd5b506102b96105a5565b6040516102c69190610ac9565b60405180910390f35b3480156102db57600080fd5b506102e46105cb565b6040516102f19190610a43565b60405180910390f35b34801561030657600080fd5b5061030f6105de565b60405161031c9190610b43565b60405180910390f35b34801561033157600080fd5b5061034c6004803603810190610347919061094e565b610602565b005b80600160009054906101000a900473ffffffffffffffffffffffffffffffffffffffff1673ffffffffffffffffffffffffffffffffffffffff163373ffffffffffffffffffffffffffffffffffffffff16146103df576040517f08c379a00000000000000000000000000000000000000000000000000000000081526004016103d690610bbb565b60405180910390fd5b60018160ff1611610425576040517f08c379a000000000000000000000000000000000000000000000000000000000815260040161041c90610c27565b60405180910390fd5b60328160ff161061046b576040517f08c379a000000000000000000000000000000000000000000000000000000000815260040161046290610c93565b60405180910390fd5b6000600660009054906101000a900460ff1660ff16146104c0576040517f08c379a00000000000000000000000000000000000000000000000000000000081526004016104b790610cff565b60405180910390fd5b81600660006101000a81548160ff021916908360ff1602179055505050565b600080600884846040516104f4929190610d5e565b9081526020016040518091039020541415905092915050565b6004816040811061051d57600080fd5b60209182820401919006915054906101000a900460ff1681565b60075481565b6002816040811061054d57600080fd5b60209182820401919006915054906101000a900460ff1681565b60006002600381111561057d5761057c610d77565b5b600160149054906101000a900460ff16600381111561059f5761059e610d77565b5b14905090565b600160009054906101000a900473ffffffffffffffffffffffffffffffffffffffff1681565b600660009054906101000a900460ff1681565b60008054906101000a900473ffffffffffffffffffffffffffffffffffffffff1681565b81816000600381111561061857610617610d77565b5b600160149054906101000a900460ff16600381111561063a57610639610d77565b5b1461067a576040517f08c379a000000000000000000000000000000000000000000000000000000000815260040161067190610df2565b60405180910390fd5b60006008838360405161068e929190610d5e565b908152602001604051809103902054146106dd576040517f08c379a00000000000000000000000000000000000000000000000000000000081526004016106d490610e5e565b60405180910390fd5b600033905060008054906101000a900473ffffffffffffffffffffffffffffffffffffffff1673ffffffffffffffffffffffffffffffffffffffff1663fc39599c826040518263ffffffff1660e01b815260040161073b9190610e9f565b6020604051808303816000875af115801561075a573d6000803e3d6000fd5b505050506040513d601f19601f8201168201806040525081019061077e9190610ee6565b506007600081548092919061079290610f42565b9190505550600754600886866040516107ac929190610d5e565b9081526020016040518091039020819055508060096000600754815260200190815260200160002060006101000a81548173ffffffffffffffffffffffffffffffffffffffff021916908373ffffffffffffffffffffffffffffffffffffffff1602179055508484600a6000600754815260200190815260200160002091826108369291906111c6565b507f794596a2e257d92962eeb84b11b375a64b15cd9f55d55b2e0f7831d07a67439a6007548260405161086a929190611296565b60405180910390a15050505050565b600080fd5b600080fd5b600060ff82169050919050565b61089981610883565b81146108a457600080fd5b50565b6000813590506108b681610890565b92915050565b6000602082840312156108d2576108d1610879565b5b60006108e0848285016108a7565b91505092915050565b600080fd5b600080fd5b600080fd5b60008083601f84011261090e5761090d6108e9565b5b8235905067ffffffffffffffff81111561092b5761092a6108ee565b5b602083019150836001820283011115610947576109466108f3565b5b9250929050565b6000806020838503121561096557610964610879565b5b600083013567ffffffffffffffff8111156109835761098261087e565b5b61098f858286016108f8565b92509250509250929050565b60008115159050919050565b6109b08161099b565b82525050565b60006020820190506109cb60008301846109a7565b92915050565b6000819050919050565b6109e4816109d1565b81146109ef57600080fd5b50565b600081359050610a01816109db565b92915050565b600060208284031215610a1d57610a1c610879565b5b6000610a2b848285016109f2565b91505092915050565b610a3d81610883565b82525050565b6000602082019050610a586000830184610a34565b92915050565b610a67816109d1565b82525050565b6000602082019050610a826000830184610a5e565b92915050565b600073ffffffffffffffffffffffffffffffffffffffff82169050919050565b6000610ab382610a88565b9050919050565b610ac381610aa8565b82525050565b6000602082019050610ade6000830184610aba565b92915050565b6000819050919050565b6000610b09610b04610aff84610a88565b610ae4565b610a88565b9050919050565b6000610b1b82610aee565b9050919050565b6000610b2d82610b10565b9050919050565b610b3d81610b22565b82525050565b6000602082019050610b586000830184610b34565b92915050565b600082825260208201905092915050565b7f4e4f545f415554484f52495a4544000000000000000000000000000000000000600082015250565b6000610ba5600e83610b5e565b9150610bb082610b6f565b602082019050919050565b60006020820190508181036000830152610bd481610b98565b9050919050565b7f494e56414c49445f5752445f53495a4500000000000000000000000000000000600082015250565b6000610c11601083610b5e565b9150610c1c82610bdb565b602082019050919050565b60006020820190508181036000830152610c4081610c04565b9050919050565b7f494e56414c49445f574f52445f53495a45000000000000000000000000000000600082015250565b6000610c7d601183610b5e565b9150610c8882610c47565b602082019050919050565b60006020820190508181036000830152610cac81610c70565b9050919050565b7f53495a455f414c52454144595f53455400000000000000000000000000000000600082015250565b6000610ce9601083610b5e565b9150610cf482610cb3565b602082019050919050565b60006020820190508181036000830152610d1881610cdc565b9050919050565b600081905092915050565b82818337600083830152505050565b6000610d458385610d1f565b9350610d52838584610d2a565b82840190509392505050565b6000610d6b828486610d39565b91508190509392505050565b7f4e487b7100000000000000000000000000000000000000000000000000000000600052602160045260246000fd5b7f47414d455f4e4f545f4f50454e00000000000000000000000000000000000000600082015250565b6000610ddc600d83610b5e565b9150610de782610da6565b602082019050919050565b60006020820190508181036000830152610e0b81610dcf565b9050919050565b7f574f52445f414c52454144595f54414b454e0000000000000000000000000000600082015250565b6000610e48601283610b5e565b9150610e5382610e12565b602082019050919050565b60006020820190508181036000830152610e7781610e3b565b9050919050565b6000610e8982610a88565b9050919050565b610e9981610e7e565b82525050565b6000602082019050610eb46000830184610e90565b92915050565b610ec38161099b565b8114610ece57600080fd5b50565b600081519050610ee081610eba565b92915050565b600060208284031215610efc57610efb610879565b5b6000610f0a84828501610ed1565b91505092915050565b7f4e487b7100000000000000000000000000000000000000000000000000000000600052601160045260246000fd5b6000610f4d826109d1565b91507fffffffffffffffffffffffffffffffffffffffffffffffffffffffffffffffff8203610f7f57610f7e610f13565b5b600182019050919050565b600082905092915050565b7f4e487b7100000000000000000000000000000000000000000000000000000000600052604160045260246000fd5b7f4e487b7100000000000000000000000000000000000000000000000000000000600052602260045260246000fd5b6000600282049050600182168061100b57607f821691505b60208210810361101e5761101d610fc4565b5b50919050565b60008190508160005260206000209050919050565b60006020601f8301049050919050565b600082821b905092915050565b6000600883026110867fffffffffffffffffffffffffffffffffffffffffffffffffffffffffffffffff82611049565b6110908683611049565b95508019841693508086168417925050509392505050565b60006110c36110be6110b9846109d1565b610ae4565b6109d1565b9050919050565b6000819050919050565b6110dd836110a8565b6110f16110e9826110ca565b848454611056565b825550505050565b600090565b6111066110f9565b6111118184846110d4565b505050565b5b818110156111355761112a6000826110fe565b600181019050611117565b5050565b601f82111561117a5761114b81611024565b61115484611039565b81016020851015611163578190505b61117761116f85611039565b830182611116565b50505b505050565b600082821c905092915050565b600061119d6000198460080261117f565b1980831691505092915050565b60006111b6838361118c565b9150826002028217905092915050565b6111d08383610f8a565b67ffffffffffffffff8111156111e9576111e8610f95565b5b6111f38254610ff3565b6111fe828285611139565b6000601f83116001811461122d576000841561121b578287013590505b61122585826111aa565b86555061128d565b601f19841661123b86611024565b60005b828110156112635784890135825560018201915060208501945060208101905061123e565b86831015611280578489013561127c601f89168261118c565b8355505b6001600288020188555050505b50505050505050565b60006040820190506112ab6000830185610a5e565b6112b86020830184610e90565b939250505056fea2646970667358221220663cb6d5486d7eadd5d8ad31e46c574c10c1a3d2f073be8b77e38151aa2659b864736f6c63430008110033",
  "linkReferences": {},
  "deployedLinkReferences": {}
}