{
  "_format": "hh-sol-artifact-1",
  "contractName": "WordOracle",
  "sourceName": "contracts/WordOracle.sol",
  "abi": [
    {
      "inputs": [],
      "stateMutability": "nonpayable",
      "type": "constructor"
    },
    {
      "anonymous": false,
      "inputs": [
        {
          "indexed": false,
          "internalType": "address",
          "name": "providerAddress",
          "type": "address"
        }
      ],
      "name": "ProviderAdded",
      "type": "event"
    },
    {
      "anonymous": false,
      "inputs": [
        {
          "indexed": false,
          "internalType": "address",
          "name": "providerAddress",
          "type": "address"
        }
      ],
      "name": "ProviderRemoved",
      "type": "event"
    },
    {
      "anonymous": false,
      "inputs": [
        {
          "indexed": false,
          "internalType": "uint256",
          "name": "threshold",
          "type": "uint256"
        }
      ],
      "name": "ProvidersThresholdChanged",
      "type": "event"
    },
    {
      "anonymous": false,
      "inputs": [
        {
          "indexed": true,
          "internalType": "bytes32",
          "name": "role",
          "type": "bytes32"
        },
        {
          "indexed": true,
          "internalType": "bytes32",
          "name": "previousAdminRole",
          "type": "bytes32"
        },
        {
          "indexed": true,
          "internalType": "bytes32",
          "name": "newAdminRole",
          "type": "bytes32"
        }
      ],
      "name": "RoleAdminChanged",
      "type": "event"
    },
    {
      "anonymous": false,
      "inputs": [
        {
          "indexed": true,
          "internalType": "bytes32",
          "name": "role",
          "type": "bytes32"
        },
        {
          "indexed": true,
          "internalType": "address",
          "name": "account",
          "type": "address"
        },
        {
          "indexed": true,
          "internalType": "address",
          "name": "sender",
          "type": "address"
        }
      ],
      "name": "RoleGranted",
      "type": "event"
    },
    {
      "anonymous": false,
      "inputs": [
        {
          "indexed": true,
          "internalType": "bytes32",
          "name": "role",
          "type": "bytes32"
        },
        {
          "indexed": true,
          "internalType": "address",
          "name": "account",
          "type": "address"
        },
        {
          "indexed": true,
          "internalType": "address",
          "name": "sender",
          "type": "address"
        }
      ],
      "name": "RoleRevoked",
      "type": "event"
    },
    {
      "anonymous": false,
      "inputs": [
        {
          "indexed": false,
          "internalType": "address",
          "name": "callerAddress",
          "type": "address"
        },
        {
          "indexed": false,
          "internalType": "uint256",
          "name": "id",
          "type": "uint256"
        }
      ],
      "name": "ValidationRequested",
      "type": "event"
    },
    {
      "anonymous": false,
      "inputs": [
        {
          "indexed": false,
          "internalType": "bool",
          "name": "isChallengeValid",
          "type": "bool"
        },
        {
          "indexed": false,
          "internalType": "address",
          "name": "returnerAddress",
          "type": "address"
        },
        {
          "indexed": false,
          "internalType": "uint256",
          "name": "id",
          "type": "uint256"
        }
      ],
      "name": "ValidationReturned",
      "type": "event"
    },
    {
      "inputs": [],
      "name": "DEFAULT_ADMIN_ROLE",
      "outputs": [
        {
          "internalType": "bytes32",
          "name": "",
          "type": "bytes32"
        }
      ],
      "stateMutability": "view",
      "type": "function"
    },
    {
      "inputs": [],
      "name": "GAME_OWNER_ROLE",
      "outputs": [
        {
          "internalType": "bytes32",
          "name": "",
          "type": "bytes32"
        }
      ],
      "stateMutability": "view",
      "type": "function"
    },
    {
      "inputs": [],
      "name": "LOCAL_GAMES_ROLE",
      "outputs": [
        {
          "internalType": "bytes32",
          "name": "",
          "type": "bytes32"
        }
      ],
      "stateMutability": "view",
      "type": "function"
    },
    {
      "inputs": [],
      "name": "PROVIDER_ROLE",
      "outputs": [
        {
          "internalType": "bytes32",
          "name": "",
          "type": "bytes32"
        }
      ],
      "stateMutability": "view",
      "type": "function"
    },
    {
      "inputs": [
        {
          "internalType": "address",
          "name": "provider",
          "type": "address"
        }
      ],
      "name": "addProvider",
      "outputs": [],
      "stateMutability": "nonpayable",
      "type": "function"
    },
    {
      "inputs": [
        {
          "internalType": "bytes32",
          "name": "role",
          "type": "bytes32"
        }
      ],
      "name": "getRoleAdmin",
      "outputs": [
        {
          "internalType": "bytes32",
          "name": "",
          "type": "bytes32"
        }
      ],
      "stateMutability": "view",
      "type": "function"
    },
    {
      "inputs": [
        {
          "internalType": "bytes32",
          "name": "role",
          "type": "bytes32"
        },
        {
          "internalType": "address",
          "name": "account",
          "type": "address"
        }
      ],
      "name": "grantRole",
      "outputs": [],
      "stateMutability": "nonpayable",
      "type": "function"
    },
    {
      "inputs": [
        {
          "internalType": "bytes32",
          "name": "role",
          "type": "bytes32"
        },
        {
          "internalType": "address",
          "name": "account",
          "type": "address"
        }
      ],
      "name": "hasRole",
      "outputs": [
        {
          "internalType": "bool",
          "name": "",
          "type": "bool"
        }
      ],
      "stateMutability": "view",
      "type": "function"
    },
    {
      "inputs": [
        {
          "internalType": "address",
          "name": "provider",
          "type": "address"
        }
      ],
      "name": "removeProvider",
      "outputs": [],
      "stateMutability": "nonpayable",
      "type": "function"
    },
    {
      "inputs": [
        {
          "internalType": "bytes32",
          "name": "role",
          "type": "bytes32"
        },
        {
          "internalType": "address",
          "name": "account",
          "type": "address"
        }
      ],
      "name": "renounceRole",
      "outputs": [],
      "stateMutability": "nonpayable",
      "type": "function"
    },
    {
      "inputs": [],
      "name": "requestValidateChallenge",
      "outputs": [
        {
          "internalType": "uint256",
          "name": "",
          "type": "uint256"
        }
      ],
      "stateMutability": "nonpayable",
      "type": "function"
    },
    {
      "inputs": [
        {
          "internalType": "bool",
          "name": "validationResult",
          "type": "bool"
        },
        {
          "internalType": "uint256",
          "name": "id",
          "type": "uint256"
        }
      ],
      "name": "returnValidateChallenge",
      "outputs": [],
      "stateMutability": "nonpayable",
      "type": "function"
    },
    {
      "inputs": [
        {
          "internalType": "bytes32",
          "name": "role",
          "type": "bytes32"
        },
        {
          "internalType": "address",
          "name": "account",
          "type": "address"
        }
      ],
      "name": "revokeRole",
      "outputs": [],
      "stateMutability": "nonpayable",
      "type": "function"
    },
    {
      "inputs": [
        {
          "internalType": "uint256",
          "name": "threshold",
          "type": "uint256"
        }
      ],
      "name": "setProvidersThreshold",
      "outputs": [],
      "stateMutability": "nonpayable",
      "type": "function"
    },
    {
      "inputs": [
        {
          "internalType": "bytes4",
          "name": "interfaceId",
          "type": "bytes4"
        }
      ],
      "name": "supportsInterface",
      "outputs": [
        {
          "internalType": "bool",
          "name": "",
          "type": "bool"
        }
      ],
      "stateMutability": "view",
      "type": "function"
    }
  ],
  "bytecode": "0x60806040526000600155600160025560006003553480156200002057600080fd5b50620000366000801b336200007560201b60201c565b620000687f18d9ff454de989bd126b06bd404b47ede75f9e65543e94e8d212f89d7dcbb87c336200008b60201b60201c565b60018081905550620001ee565b6200008782826200008b60201b60201c565b5050565b6200009d82826200017c60201b60201c565b6200017857600160008084815260200190815260200160002060000160008373ffffffffffffffffffffffffffffffffffffffff1673ffffffffffffffffffffffffffffffffffffffff16815260200190815260200160002060006101000a81548160ff0219169083151502179055506200011d620001e660201b60201c565b73ffffffffffffffffffffffffffffffffffffffff168173ffffffffffffffffffffffffffffffffffffffff16837f2f8788117e7eff1d82e926ec794901d17c78024a50270940304540a733656f0d60405160405180910390a45b5050565b600080600084815260200190815260200160002060000160008373ffffffffffffffffffffffffffffffffffffffff1673ffffffffffffffffffffffffffffffffffffffff16815260200190815260200160002060009054906101000a900460ff16905092915050565b600033905090565b6120f280620001fe6000396000f3fe608060405234801561001057600080fd5b50600436106100f55760003560e01c80638a355a5711610097578063b77c1c6d11610066578063b77c1c6d14610270578063be32d1fa1461028c578063d547741f146102aa578063ee856471146102c6576100f5565b80638a355a57146101ea57806391d1485414610206578063a217fddf14610236578063af55036a14610254576100f5565b806324c20a34116100d357806324c20a34146101785780632f2ff15d1461019657806336568abe146101b257806346e2577a146101ce576100f5565b806301ffc9a7146100fa5780630ceb715e1461012a578063248a9ca314610148575b600080fd5b610114600480360381019061010f919061145a565b6102e4565b60405161012191906114a2565b60405180910390f35b61013261035e565b60405161013f91906114d6565b60405180910390f35b610162600480360381019061015d919061151d565b610382565b60405161016f91906114d6565b60405180910390f35b6101806103a1565b60405161018d91906114d6565b60405180910390f35b6101b060048036038101906101ab91906115a8565b6103c5565b005b6101cc60048036038101906101c791906115a8565b6103e6565b005b6101e860048036038101906101e391906115e8565b610469565b005b61020460048036038101906101ff91906115e8565b610598565b005b610220600480360381019061021b91906115a8565b61070b565b60405161022d91906114a2565b60405180910390f35b61023e610775565b60405161024b91906114d6565b60405180910390f35b61026e60048036038101906102699190611677565b61077c565b005b61028a600480360381019061028591906116b7565b610b3e565b005b610294610c0d565b6040516102a191906116f3565b60405180910390f35b6102c460048036038101906102bf91906115a8565b610e08565b005b6102ce610e29565b6040516102db91906114d6565b60405180910390f35b60007f7965db0b000000000000000000000000000000000000000000000000000000007bffffffffffffffffffffffffffffffffffffffffffffffffffffffff1916827bffffffffffffffffffffffffffffffffffffffffffffffffffffffff19161480610357575061035682610e4d565b5b9050919050565b7fe733b395df71d300afc4d9294f1b6cde9634302bd8c6a6ae908f569b0541e46081565b6000806000838152602001908152602001600020600101549050919050565b7f18d9ff454de989bd126b06bd404b47ede75f9e65543e94e8d212f89d7dcbb87c81565b6103ce82610382565b6103d781610eb7565b6103e18383610ecb565b505050565b6103ee610fab565b73ffffffffffffffffffffffffffffffffffffffff168173ffffffffffffffffffffffffffffffffffffffff161461045b576040517f08c379a000000000000000000000000000000000000000000000000000000000815260040161045290611791565b60405180910390fd5b6104658282610fb3565b5050565b80610472611094565b6104b1576040517f08c379a00000000000000000000000000000000000000000000000000000000081526004016104a8906117fd565b60405180910390fd5b6104db7f18d9ff454de989bd126b06bd404b47ede75f9e65543e94e8d212f89d7dcbb87c8261070b565b1561051b576040517f08c379a000000000000000000000000000000000000000000000000000000000815260040161051290611869565b60405180910390fd5b6105457f18d9ff454de989bd126b06bd404b47ede75f9e65543e94e8d212f89d7dcbb87c83610ecb565b60016000815480929190610558906118b8565b91905055507fae9c2c6481964847714ce58f65a7f6dcc41d0d8394449bacdf161b5920c4744a8260405161058c919061190f565b60405180910390a15050565b806105a1611094565b6105e0576040517f08c379a00000000000000000000000000000000000000000000000000000000081526004016105d7906117fd565b60405180910390fd5b61060a7f18d9ff454de989bd126b06bd404b47ede75f9e65543e94e8d212f89d7dcbb87c8261070b565b1561064a576040517f08c379a000000000000000000000000000000000000000000000000000000000815260040161064190611976565b60405180910390fd5b600180541161068e576040517f08c379a0000000000000000000000000000000000000000000000000000000008152600401610685906119e2565b60405180910390fd5b6106b87f18d9ff454de989bd126b06bd404b47ede75f9e65543e94e8d212f89d7dcbb87c83610fb3565b600160008154809291906106cb90611a02565b91905055507f1589f8555933761a3cff8aa925061be3b46e2dd43f621322ab611d300f62b1d9826040516106ff919061190f565b60405180910390a15050565b600080600084815260200190815260200160002060000160008373ffffffffffffffffffffffffffffffffffffffff1673ffffffffffffffffffffffffffffffffffffffff16815260200190815260200160002060009054906101000a900460ff16905092915050565b6000801b81565b806107856110a8565b6107c4576040517f08c379a00000000000000000000000000000000000000000000000000000000081526004016107bb90611976565b60405180910390fd5b6004600082815260200190815260200160002060009054906101000a900460ff16610824576040517f08c379a000000000000000000000000000000000000000000000000000000000815260040161081b90611a77565b60405180910390fd5b600060405180606001604052803373ffffffffffffffffffffffffffffffffffffffff1681526020016005600086815260200190815260200160002060009054906101000a900473ffffffffffffffffffffffffffffffffffffffff1673ffffffffffffffffffffffffffffffffffffffff16815260200185151581525090506006600084815260200190815260200160002081908060018154018082558091505060019003906000526020600020906002020160009091909190915060008201518160000160006101000a81548173ffffffffffffffffffffffffffffffffffffffff021916908373ffffffffffffffffffffffffffffffffffffffff16021790555060208201518160010160006101000a81548173ffffffffffffffffffffffffffffffffffffffff021916908373ffffffffffffffffffffffffffffffffffffffff16021790555060408201518160010160146101000a81548160ff0219169083151502179055505050600254600660008581526020019081526020016000208054905010610b38576000806006600086815260200190815260200160002080549050905060005b81811015610a485760011515600660008881526020019081526020016000208281548110610a00576109ff611a97565b5b906000526020600020906002020160010160149054906101000a900460ff16151503610a35578280610a31906118b8565b9350505b8080610a40906118b8565b9150506109cf565b506000600282610a589190611af5565b8311905060006005600088815260200190815260200160002060009054906101000a900473ffffffffffffffffffffffffffffffffffffffff1690506004600088815260200190815260200160002060006101000a81549060ff02191690556005600088815260200190815260200160002060006101000a81549073ffffffffffffffffffffffffffffffffffffffff02191690557f4824ad9704881d29453bcbe1bc41e840b1e55696ba8e6a73b0ca26558c056cea828289604051610b2093929190611b26565b60405180910390a1610b338282896110d9565b505050505b50505050565b80610b47611094565b610b86576040517f08c379a0000000000000000000000000000000000000000000000000000000008152600401610b7d906117fd565b60405180910390fd5b60008111610bc9576040517f08c379a0000000000000000000000000000000000000000000000000000000008152600401610bc090611ba9565b60405180910390fd5b816002819055507f86f1e9da41956a9347ec56b57c24c4b239b13c6c1f40a39a08147e8358b276d5600254604051610c0191906116f3565b60405180910390a15050565b6000610c176110de565b610c56576040517f08c379a0000000000000000000000000000000000000000000000000000000008152600401610c4d90611c15565b60405180910390fd5b600060015411610c9b576040517f08c379a0000000000000000000000000000000000000000000000000000000008152600401610c9290611c81565b60405180910390fd5b6103e84233604051602001610cb1929190611d0a565b6040516020818303038152906040528051906020012060001c610cd49190611d36565b6003819055506000151560046000600354815260200190815260200160002060009054906101000a900460ff16151514610d43576040517f08c379a0000000000000000000000000000000000000000000000000000000008152600401610d3a90611db3565b60405180910390fd5b600160046000600354815260200190815260200160002060006101000a81548160ff0219169083151502179055503360056000600354815260200190815260200160002060006101000a81548173ffffffffffffffffffffffffffffffffffffffff021916908373ffffffffffffffffffffffffffffffffffffffff1602179055507f59abae0fcfddf1cd723ec8da323dfbcfe71545445fddb1e782f1df0ab463934233600354604051610df8929190611dd3565b60405180910390a1600354905090565b610e1182610382565b610e1a81610eb7565b610e248383610fb3565b505050565b7f97ddfac5979f67c8fd916096347cd37641e1137e092ecf4817fb2a3890ad327181565b60007f01ffc9a7000000000000000000000000000000000000000000000000000000007bffffffffffffffffffffffffffffffffffffffffffffffffffffffff1916827bffffffffffffffffffffffffffffffffffffffffffffffffffffffff1916149050919050565b610ec881610ec3610fab565b61110f565b50565b610ed5828261070b565b610fa757600160008084815260200190815260200160002060000160008373ffffffffffffffffffffffffffffffffffffffff1673ffffffffffffffffffffffffffffffffffffffff16815260200190815260200160002060006101000a81548160ff021916908315150217905550610f4c610fab565b73ffffffffffffffffffffffffffffffffffffffff168173ffffffffffffffffffffffffffffffffffffffff16837f2f8788117e7eff1d82e926ec794901d17c78024a50270940304540a733656f0d60405160405180910390a45b5050565b600033905090565b610fbd828261070b565b1561109057600080600084815260200190815260200160002060000160008373ffffffffffffffffffffffffffffffffffffffff1673ffffffffffffffffffffffffffffffffffffffff16815260200190815260200160002060006101000a81548160ff021916908315150217905550611035610fab565b73ffffffffffffffffffffffffffffffffffffffff168173ffffffffffffffffffffffffffffffffffffffff16837ff6391f5c32d9c69d2a47ea670b442974b53935d1edc7fd64eb21e047a839171b60405160405180910390a45b5050565b60006110a36000801b3361070b565b905090565b60006110d47f18d9ff454de989bd126b06bd404b47ede75f9e65543e94e8d212f89d7dcbb87c3361070b565b905090565b505050565b600061110a7fe733b395df71d300afc4d9294f1b6cde9634302bd8c6a6ae908f569b0541e4603361070b565b905090565b611119828261070b565b6111905761112681611194565b6111348360001c60206111c1565b604051602001611145929190611f05565b6040516020818303038152906040526040517f08c379a00000000000000000000000000000000000000000000000000000000081526004016111879190611f89565b60405180910390fd5b5050565b60606111ba8273ffffffffffffffffffffffffffffffffffffffff16601460ff166111c1565b9050919050565b6060600060028360026111d49190611fab565b6111de9190611fed565b67ffffffffffffffff8111156111f7576111f6612021565b5b6040519080825280601f01601f1916602001820160405280156112295781602001600182028036833780820191505090505b5090507f30000000000000000000000000000000000000000000000000000000000000008160008151811061126157611260611a97565b5b60200101907effffffffffffffffffffffffffffffffffffffffffffffffffffffffffffff1916908160001a9053507f7800000000000000000000000000000000000000000000000000000000000000816001815181106112c5576112c4611a97565b5b60200101907effffffffffffffffffffffffffffffffffffffffffffffffffffffffffffff1916908160001a905350600060018460026113059190611fab565b61130f9190611fed565b90505b60018111156113af577f3031323334353637383961626364656600000000000000000000000000000000600f86166010811061135157611350611a97565b5b1a60f81b82828151811061136857611367611a97565b5b60200101907effffffffffffffffffffffffffffffffffffffffffffffffffffffffffffff1916908160001a905350600485901c9450806113a890611a02565b9050611312565b50600084146113f3576040517f08c379a00000000000000000000000000000000000000000000000000000000081526004016113ea9061209c565b60405180910390fd5b8091505092915050565b600080fd5b60007fffffffff0000000000000000000000000000000000000000000000000000000082169050919050565b61143781611402565b811461144257600080fd5b50565b6000813590506114548161142e565b92915050565b6000602082840312156114705761146f6113fd565b5b600061147e84828501611445565b91505092915050565b60008115159050919050565b61149c81611487565b82525050565b60006020820190506114b76000830184611493565b92915050565b6000819050919050565b6114d0816114bd565b82525050565b60006020820190506114eb60008301846114c7565b92915050565b6114fa816114bd565b811461150557600080fd5b50565b600081359050611517816114f1565b92915050565b600060208284031215611533576115326113fd565b5b600061154184828501611508565b91505092915050565b600073ffffffffffffffffffffffffffffffffffffffff82169050919050565b60006115758261154a565b9050919050565b6115858161156a565b811461159057600080fd5b50565b6000813590506115a28161157c565b92915050565b600080604083850312156115bf576115be6113fd565b5b60006115cd85828601611508565b92505060206115de85828601611593565b9150509250929050565b6000602082840312156115fe576115fd6113fd565b5b600061160c84828501611593565b91505092915050565b61161e81611487565b811461162957600080fd5b50565b60008135905061163b81611615565b92915050565b6000819050919050565b61165481611641565b811461165f57600080fd5b50565b6000813590506116718161164b565b92915050565b6000806040838503121561168e5761168d6113fd565b5b600061169c8582860161162c565b92505060206116ad85828601611662565b9150509250929050565b6000602082840312156116cd576116cc6113fd565b5b60006116db84828501611662565b91505092915050565b6116ed81611641565b82525050565b600060208201905061170860008301846116e4565b92915050565b600082825260208201905092915050565b7f416363657373436f6e74726f6c3a2063616e206f6e6c792072656e6f756e636560008201527f20726f6c657320666f722073656c660000000000000000000000000000000000602082015250565b600061177b602f8361170e565b91506117868261171f565b604082019050919050565b600060208201905081810360008301526117aa8161176e565b9050919050565b7f4e4f545f41444d494e0000000000000000000000000000000000000000000000600082015250565b60006117e760098361170e565b91506117f2826117b1565b602082019050919050565b60006020820190508181036000830152611816816117da565b9050919050565b7f414c52454144595f50524f564944455200000000000000000000000000000000600082015250565b600061185360108361170e565b915061185e8261181d565b602082019050919050565b6000602082019050818103600083015261188281611846565b9050919050565b7f4e487b7100000000000000000000000000000000000000000000000000000000600052601160045260246000fd5b60006118c382611641565b91507fffffffffffffffffffffffffffffffffffffffffffffffffffffffffffffffff82036118f5576118f4611889565b5b600182019050919050565b6119098161156a565b82525050565b60006020820190506119246000830184611900565b92915050565b7f4e4f545f50524f56494445520000000000000000000000000000000000000000600082015250565b6000611960600c8361170e565b915061196b8261192a565b602082019050919050565b6000602082019050818103600083015261198f81611953565b9050919050565b7f43616e6e6f742072656d6f766520746865206f6e6c792070726f76696465722e600082015250565b60006119cc60208361170e565b91506119d782611996565b602082019050919050565b600060208201905081810360008301526119fb816119bf565b9050919050565b6000611a0d82611641565b915060008203611a2057611a1f611889565b5b600182039050919050565b7f524551554553545f4e4f545f464f554e44000000000000000000000000000000600082015250565b6000611a6160118361170e565b9150611a6c82611a2b565b602082019050919050565b60006020820190508181036000830152611a9081611a54565b9050919050565b7f4e487b7100000000000000000000000000000000000000000000000000000000600052603260045260246000fd5b7f4e487b7100000000000000000000000000000000000000000000000000000000600052601260045260246000fd5b6000611b0082611641565b9150611b0b83611641565b925082611b1b57611b1a611ac6565b5b828204905092915050565b6000606082019050611b3b6000830186611493565b611b486020830185611900565b611b5560408301846116e4565b949350505050565b7f494e56414c49445f5448524553484f4c44000000000000000000000000000000600082015250565b6000611b9360118361170e565b9150611b9e82611b5d565b602082019050919050565b60006020820190508181036000830152611bc281611b86565b9050919050565b7f494e56414c49445f47414d450000000000000000000000000000000000000000600082015250565b6000611bff600c8361170e565b9150611c0a82611bc9565b602082019050919050565b60006020820190508181036000830152611c2e81611bf2565b9050919050565b7f4e4f5f50524f5649444552530000000000000000000000000000000000000000600082015250565b6000611c6b600c8361170e565b9150611c7682611c35565b602082019050919050565b60006020820190508181036000830152611c9a81611c5e565b9050919050565b6000819050919050565b611cbc611cb782611641565b611ca1565b82525050565b60008160601b9050919050565b6000611cda82611cc2565b9050919050565b6000611cec82611ccf565b9050919050565b611d04611cff8261156a565b611ce1565b82525050565b6000611d168285611cab565b602082019150611d268284611cf3565b6014820191508190509392505050565b6000611d4182611641565b9150611d4c83611641565b925082611d5c57611d5b611ac6565b5b828206905092915050565b7f5452595f4c415445520000000000000000000000000000000000000000000000600082015250565b6000611d9d60098361170e565b9150611da882611d67565b602082019050919050565b60006020820190508181036000830152611dcc81611d90565b9050919050565b6000604082019050611de86000830185611900565b611df560208301846116e4565b9392505050565b600081905092915050565b7f416363657373436f6e74726f6c3a206163636f756e7420000000000000000000600082015250565b6000611e3d601783611dfc565b9150611e4882611e07565b601782019050919050565b600081519050919050565b60005b83811015611e7c578082015181840152602081019050611e61565b60008484015250505050565b6000611e9382611e53565b611e9d8185611dfc565b9350611ead818560208601611e5e565b80840191505092915050565b7f206973206d697373696e6720726f6c6520000000000000000000000000000000600082015250565b6000611eef601183611dfc565b9150611efa82611eb9565b601182019050919050565b6000611f1082611e30565b9150611f1c8285611e88565b9150611f2782611ee2565b9150611f338284611e88565b91508190509392505050565b6000601f19601f8301169050919050565b6000611f5b82611e53565b611f65818561170e565b9350611f75818560208601611e5e565b611f7e81611f3f565b840191505092915050565b60006020820190508181036000830152611fa38184611f50565b905092915050565b6000611fb682611641565b9150611fc183611641565b9250828202611fcf81611641565b91508282048414831517611fe657611fe5611889565b5b5092915050565b6000611ff882611641565b915061200383611641565b925082820190508082111561201b5761201a611889565b5b92915050565b7f4e487b7100000000000000000000000000000000000000000000000000000000600052604160045260246000fd5b7f537472696e67733a20686578206c656e67746820696e73756666696369656e74600082015250565b600061208660208361170e565b915061209182612050565b602082019050919050565b600060208201905081810360008301526120b581612079565b905091905056fea2646970667358221220eb44b3531de973b8fd979c804ac75e2fee056a3b28a74b8dc547887c6091a0ea64736f6c63430008110033",
  "linkReferences": {},
  "deployedLinkReferences": {}
}